{
  "_format": "hh-sol-artifact-1",
  "contractName": "InvoiceNFT",
  "sourceName": "contracts/InvoiceNFT.sol",
  "abi": [
    {
      "inputs": [],
      "stateMutability": "nonpayable",
      "type": "constructor"
    },
    {
      "inputs": [],
      "name": "AccessControlBadConfirmation",
      "type": "error"
    },
    {
      "inputs": [
        {
          "internalType": "address",
          "name": "account",
          "type": "address"
        },
        {
          "internalType": "bytes32",
          "name": "neededRole",
          "type": "bytes32"
        }
      ],
      "name": "AccessControlUnauthorizedAccount",
      "type": "error"
    },
    {
      "inputs": [],
      "name": "ERC721EnumerableForbiddenBatchMint",
      "type": "error"
    },
    {
      "inputs": [
        {
          "internalType": "address",
          "name": "sender",
          "type": "address"
        },
        {
          "internalType": "uint256",
          "name": "tokenId",
          "type": "uint256"
        },
        {
          "internalType": "address",
          "name": "owner",
          "type": "address"
        }
      ],
      "name": "ERC721IncorrectOwner",
      "type": "error"
    },
    {
      "inputs": [
        {
          "internalType": "address",
          "name": "operator",
          "type": "address"
        },
        {
          "internalType": "uint256",
          "name": "tokenId",
          "type": "uint256"
        }
      ],
      "name": "ERC721InsufficientApproval",
      "type": "error"
    },
    {
      "inputs": [
        {
          "internalType": "address",
          "name": "approver",
          "type": "address"
        }
      ],
      "name": "ERC721InvalidApprover",
      "type": "error"
    },
    {
      "inputs": [
        {
          "internalType": "address",
          "name": "operator",
          "type": "address"
        }
      ],
      "name": "ERC721InvalidOperator",
      "type": "error"
    },
    {
      "inputs": [
        {
          "internalType": "address",
          "name": "owner",
          "type": "address"
        }
      ],
      "name": "ERC721InvalidOwner",
      "type": "error"
    },
    {
      "inputs": [
        {
          "internalType": "address",
          "name": "receiver",
          "type": "address"
        }
      ],
      "name": "ERC721InvalidReceiver",
      "type": "error"
    },
    {
      "inputs": [
        {
          "internalType": "address",
          "name": "sender",
          "type": "address"
        }
      ],
      "name": "ERC721InvalidSender",
      "type": "error"
    },
    {
      "inputs": [
        {
          "internalType": "uint256",
          "name": "tokenId",
          "type": "uint256"
        }
      ],
      "name": "ERC721NonexistentToken",
      "type": "error"
    },
    {
      "inputs": [
        {
          "internalType": "address",
          "name": "owner",
          "type": "address"
        },
        {
          "internalType": "uint256",
          "name": "index",
          "type": "uint256"
        }
      ],
      "name": "ERC721OutOfBoundsIndex",
      "type": "error"
    },
    {
      "anonymous": false,
      "inputs": [
        {
          "indexed": true,
          "internalType": "address",
          "name": "owner",
          "type": "address"
        },
        {
          "indexed": true,
          "internalType": "address",
          "name": "approved",
          "type": "address"
        },
        {
          "indexed": true,
          "internalType": "uint256",
          "name": "tokenId",
          "type": "uint256"
        }
      ],
      "name": "Approval",
      "type": "event"
    },
    {
      "anonymous": false,
      "inputs": [
        {
          "indexed": true,
          "internalType": "address",
          "name": "owner",
          "type": "address"
        },
        {
          "indexed": true,
          "internalType": "address",
          "name": "operator",
          "type": "address"
        },
        {
          "indexed": false,
          "internalType": "bool",
          "name": "approved",
          "type": "bool"
        }
      ],
      "name": "ApprovalForAll",
      "type": "event"
    },
    {
      "anonymous": false,
      "inputs": [
        {
          "indexed": false,
          "internalType": "uint256",
          "name": "_fromTokenId",
          "type": "uint256"
        },
        {
          "indexed": false,
          "internalType": "uint256",
          "name": "_toTokenId",
          "type": "uint256"
        }
      ],
      "name": "BatchMetadataUpdate",
      "type": "event"
    },
    {
      "anonymous": false,
      "inputs": [
        {
          "indexed": true,
          "internalType": "uint256",
          "name": "tokenId",
          "type": "uint256"
        }
      ],
      "name": "InvoiceBurned",
      "type": "event"
    },
    {
      "anonymous": false,
      "inputs": [
        {
          "indexed": true,
          "internalType": "uint256",
          "name": "tokenId",
          "type": "uint256"
        },
        {
          "indexed": true,
          "internalType": "address",
          "name": "supplier",
          "type": "address"
        },
        {
          "indexed": false,
          "internalType": "string",
          "name": "invoiceId",
          "type": "string"
        }
      ],
      "name": "InvoiceMinted",
      "type": "event"
    },
    {
      "anonymous": false,
      "inputs": [
        {
          "indexed": true,
          "internalType": "uint256",
          "name": "tokenId",
          "type": "uint256"
        }
      ],
      "name": "InvoiceVerified",
      "type": "event"
    },
    {
      "anonymous": false,
      "inputs": [
        {
          "indexed": false,
          "internalType": "uint256",
          "name": "_tokenId",
          "type": "uint256"
        }
      ],
      "name": "MetadataUpdate",
      "type": "event"
    },
    {
      "anonymous": false,
      "inputs": [
        {
          "indexed": true,
          "internalType": "bytes32",
          "name": "role",
          "type": "bytes32"
        },
        {
          "indexed": true,
          "internalType": "bytes32",
          "name": "previousAdminRole",
          "type": "bytes32"
        },
        {
          "indexed": true,
          "internalType": "bytes32",
          "name": "newAdminRole",
          "type": "bytes32"
        }
      ],
      "name": "RoleAdminChanged",
      "type": "event"
    },
    {
      "anonymous": false,
      "inputs": [
        {
          "indexed": true,
          "internalType": "bytes32",
          "name": "role",
          "type": "bytes32"
        },
        {
          "indexed": true,
          "internalType": "address",
          "name": "account",
          "type": "address"
        },
        {
          "indexed": true,
          "internalType": "address",
          "name": "sender",
          "type": "address"
        }
      ],
      "name": "RoleGranted",
      "type": "event"
    },
    {
      "anonymous": false,
      "inputs": [
        {
          "indexed": true,
          "internalType": "bytes32",
          "name": "role",
          "type": "bytes32"
        },
        {
          "indexed": true,
          "internalType": "address",
          "name": "account",
          "type": "address"
        },
        {
          "indexed": true,
          "internalType": "address",
          "name": "sender",
          "type": "address"
        }
      ],
      "name": "RoleRevoked",
      "type": "event"
    },
    {
      "anonymous": false,
      "inputs": [
        {
          "indexed": true,
          "internalType": "address",
          "name": "from",
          "type": "address"
        },
        {
          "indexed": true,
          "internalType": "address",
          "name": "to",
          "type": "address"
        },
        {
          "indexed": true,
          "internalType": "uint256",
          "name": "tokenId",
          "type": "uint256"
        }
      ],
      "name": "Transfer",
      "type": "event"
    },
    {
      "inputs": [],
      "name": "DEFAULT_ADMIN_ROLE",
      "outputs": [
        {
          "internalType": "bytes32",
          "name": "",
          "type": "bytes32"
        }
      ],
      "stateMutability": "view",
      "type": "function"
    },
    {
      "inputs": [],
      "name": "MINTER_ROLE",
      "outputs": [
        {
          "internalType": "bytes32",
          "name": "",
          "type": "bytes32"
        }
      ],
      "stateMutability": "view",
      "type": "function"
    },
    {
      "inputs": [],
      "name": "VERIFIER_ROLE",
      "outputs": [
        {
          "internalType": "bytes32",
          "name": "",
          "type": "bytes32"
        }
      ],
      "stateMutability": "view",
      "type": "function"
    },
    {
      "inputs": [
        {
          "internalType": "address",
          "name": "to",
          "type": "address"
        },
        {
          "internalType": "uint256",
          "name": "tokenId",
          "type": "uint256"
        }
      ],
      "name": "approve",
      "outputs": [],
      "stateMutability": "nonpayable",
      "type": "function"
    },
    {
      "inputs": [
        {
          "internalType": "address",
          "name": "owner",
          "type": "address"
        }
      ],
      "name": "balanceOf",
      "outputs": [
        {
          "internalType": "uint256",
          "name": "",
          "type": "uint256"
        }
      ],
      "stateMutability": "view",
      "type": "function"
    },
    {
      "inputs": [
        {
          "internalType": "uint256",
          "name": "tokenId",
          "type": "uint256"
        }
      ],
      "name": "burn",
      "outputs": [],
      "stateMutability": "nonpayable",
      "type": "function"
    },
    {
      "inputs": [
        {
          "internalType": "uint256",
          "name": "tokenId",
          "type": "uint256"
        }
      ],
      "name": "getApproved",
      "outputs": [
        {
          "internalType": "address",
          "name": "",
          "type": "address"
        }
      ],
      "stateMutability": "view",
      "type": "function"
    },
    {
      "inputs": [
        {
          "internalType": "uint256",
          "name": "tokenId",
          "type": "uint256"
        }
      ],
      "name": "getInvoiceDetails",
      "outputs": [
        {
          "components": [
            {
              "internalType": "string",
              "name": "invoiceId",
              "type": "string"
            },
            {
              "internalType": "address",
              "name": "supplier",
              "type": "address"
            },
            {
              "internalType": "address",
              "name": "buyer",
              "type": "address"
            },
            {
              "internalType": "uint256",
              "name": "creditAmount",
              "type": "uint256"
            },
            {
              "internalType": "uint256",
              "name": "dueDate",
              "type": "uint256"
            },
            {
              "internalType": "string",
              "name": "ipfsHash",
              "type": "string"
            },
            {
              "internalType": "bool",
              "name": "isVerified",
              "type": "bool"
            }
          ],
          "internalType": "struct InvoiceNFT.InvoiceDetails",
          "name": "",
          "type": "tuple"
        }
      ],
      "stateMutability": "view",
      "type": "function"
    },
    {
      "inputs": [
        {
          "internalType": "bytes32",
          "name": "role",
          "type": "bytes32"
        }
      ],
      "name": "getRoleAdmin",
      "outputs": [
        {
          "internalType": "bytes32",
          "name": "",
          "type": "bytes32"
        }
      ],
      "stateMutability": "view",
      "type": "function"
    },
    {
      "inputs": [
        {
          "internalType": "bytes32",
          "name": "role",
          "type": "bytes32"
        },
        {
          "internalType": "address",
          "name": "account",
          "type": "address"
        }
      ],
      "name": "grantRole",
      "outputs": [],
      "stateMutability": "nonpayable",
      "type": "function"
    },
    {
      "inputs": [
        {
          "internalType": "bytes32",
          "name": "role",
          "type": "bytes32"
        },
        {
          "internalType": "address",
          "name": "account",
          "type": "address"
        }
      ],
      "name": "hasRole",
      "outputs": [
        {
          "internalType": "bool",
          "name": "",
          "type": "bool"
        }
      ],
      "stateMutability": "view",
      "type": "function"
    },
    {
      "inputs": [
        {
          "internalType": "address",
          "name": "owner",
          "type": "address"
        },
        {
          "internalType": "address",
          "name": "operator",
          "type": "address"
        }
      ],
      "name": "isApprovedForAll",
      "outputs": [
        {
          "internalType": "bool",
          "name": "",
          "type": "bool"
        }
      ],
      "stateMutability": "view",
      "type": "function"
    },
    {
      "inputs": [
        {
          "internalType": "uint256",
          "name": "tokenId",
          "type": "uint256"
        }
      ],
      "name": "isVerified",
      "outputs": [
        {
          "internalType": "bool",
          "name": "",
          "type": "bool"
        }
      ],
      "stateMutability": "view",
      "type": "function"
    },
    {
      "inputs": [
        {
          "internalType": "address",
          "name": "to",
          "type": "address"
        },
        {
          "internalType": "string",
          "name": "invoiceId",
          "type": "string"
        },
        {
          "internalType": "uint256",
          "name": "creditAmount",
          "type": "uint256"
        },
        {
          "internalType": "uint256",
          "name": "dueDate",
          "type": "uint256"
        },
        {
          "internalType": "string",
          "name": "ipfsHash",
          "type": "string"
        }
      ],
      "name": "mintInvoiceNFT",
      "outputs": [
        {
          "internalType": "uint256",
          "name": "",
          "type": "uint256"
        }
      ],
      "stateMutability": "nonpayable",
      "type": "function"
    },
    {
      "inputs": [],
      "name": "name",
      "outputs": [
        {
          "internalType": "string",
          "name": "",
          "type": "string"
        }
      ],
      "stateMutability": "view",
      "type": "function"
    },
    {
      "inputs": [
        {
          "internalType": "uint256",
          "name": "tokenId",
          "type": "uint256"
        }
      ],
      "name": "ownerOf",
      "outputs": [
        {
          "internalType": "address",
          "name": "",
          "type": "address"
        }
      ],
      "stateMutability": "view",
      "type": "function"
    },
    {
      "inputs": [
        {
          "internalType": "bytes32",
          "name": "role",
          "type": "bytes32"
        },
        {
          "internalType": "address",
          "name": "callerConfirmation",
          "type": "address"
        }
      ],
      "name": "renounceRole",
      "outputs": [],
      "stateMutability": "nonpayable",
      "type": "function"
    },
    {
      "inputs": [
        {
          "internalType": "bytes32",
          "name": "role",
          "type": "bytes32"
        },
        {
          "internalType": "address",
          "name": "account",
          "type": "address"
        }
      ],
      "name": "revokeRole",
      "outputs": [],
      "stateMutability": "nonpayable",
      "type": "function"
    },
    {
      "inputs": [
        {
          "internalType": "address",
          "name": "from",
          "type": "address"
        },
        {
          "internalType": "address",
          "name": "to",
          "type": "address"
        },
        {
          "internalType": "uint256",
          "name": "tokenId",
          "type": "uint256"
        }
      ],
      "name": "safeTransferFrom",
      "outputs": [],
      "stateMutability": "nonpayable",
      "type": "function"
    },
    {
      "inputs": [
        {
          "internalType": "address",
          "name": "from",
          "type": "address"
        },
        {
          "internalType": "address",
          "name": "to",
          "type": "address"
        },
        {
          "internalType": "uint256",
          "name": "tokenId",
          "type": "uint256"
        },
        {
          "internalType": "bytes",
          "name": "data",
          "type": "bytes"
        }
      ],
      "name": "safeTransferFrom",
      "outputs": [],
      "stateMutability": "nonpayable",
      "type": "function"
    },
    {
      "inputs": [
        {
          "internalType": "address",
          "name": "operator",
          "type": "address"
        },
        {
          "internalType": "bool",
          "name": "approved",
          "type": "bool"
        }
      ],
      "name": "setApprovalForAll",
      "outputs": [],
      "stateMutability": "nonpayable",
      "type": "function"
    },
    {
      "inputs": [
        {
          "internalType": "bytes4",
          "name": "interfaceId",
          "type": "bytes4"
        }
      ],
      "name": "supportsInterface",
      "outputs": [
        {
          "internalType": "bool",
          "name": "",
          "type": "bool"
        }
      ],
      "stateMutability": "view",
      "type": "function"
    },
    {
      "inputs": [],
      "name": "symbol",
      "outputs": [
        {
          "internalType": "string",
          "name": "",
          "type": "string"
        }
      ],
      "stateMutability": "view",
      "type": "function"
    },
    {
      "inputs": [
        {
          "internalType": "uint256",
          "name": "index",
          "type": "uint256"
        }
      ],
      "name": "tokenByIndex",
      "outputs": [
        {
          "internalType": "uint256",
          "name": "",
          "type": "uint256"
        }
      ],
      "stateMutability": "view",
      "type": "function"
    },
    {
      "inputs": [
        {
          "internalType": "address",
          "name": "owner",
          "type": "address"
        },
        {
          "internalType": "uint256",
          "name": "index",
          "type": "uint256"
        }
      ],
      "name": "tokenOfOwnerByIndex",
      "outputs": [
        {
          "internalType": "uint256",
          "name": "",
          "type": "uint256"
        }
      ],
      "stateMutability": "view",
      "type": "function"
    },
    {
      "inputs": [
        {
          "internalType": "uint256",
          "name": "tokenId",
          "type": "uint256"
        }
      ],
      "name": "tokenURI",
      "outputs": [
        {
          "internalType": "string",
          "name": "",
          "type": "string"
        }
      ],
      "stateMutability": "view",
      "type": "function"
    },
    {
      "inputs": [],
      "name": "totalSupply",
      "outputs": [
        {
          "internalType": "uint256",
          "name": "",
          "type": "uint256"
        }
      ],
      "stateMutability": "view",
      "type": "function"
    },
    {
      "inputs": [
        {
          "internalType": "address",
          "name": "from",
          "type": "address"
        },
        {
          "internalType": "address",
          "name": "to",
          "type": "address"
        },
        {
          "internalType": "uint256",
          "name": "tokenId",
          "type": "uint256"
        }
      ],
      "name": "transferFrom",
      "outputs": [],
      "stateMutability": "nonpayable",
      "type": "function"
    },
    {
      "inputs": [
        {
          "internalType": "uint256",
          "name": "tokenId",
          "type": "uint256"
        }
      ],
      "name": "verifyInvoice",
      "outputs": [],
      "stateMutability": "nonpayable",
      "type": "function"
    }
  ],
  "bytecode": "0x60806040523480156200001157600080fd5b506040518060400160405280600a815260200169125b9d9bda58d953919560b21b8152506040518060400160405280600381526020016224a72b60e91b81525081600090816200006291906200023c565b5060016200007182826200023c565b506200008391506000905033620000e4565b50620000b07f9f2df0fed2c77648de5860a4cc508cd0818c85b8b8a1ab4ceeef8d981c8956a633620000e4565b50620000dd7f0ce23c3e399818cfee81a7ab0880f714e53d7672b08df0fa62f2843416e1ea0933620000e4565b5062000308565b6000828152600b602090815260408083206001600160a01b038516845290915281205460ff166200018d576000838152600b602090815260408083206001600160a01b03861684529091529020805460ff19166001179055620001443390565b6001600160a01b0316826001600160a01b0316847f2f8788117e7eff1d82e926ec794901d17c78024a50270940304540a733656f0d60405160405180910390a450600162000191565b5060005b92915050565b634e487b7160e01b600052604160045260246000fd5b600181811c90821680620001c257607f821691505b602082108103620001e357634e487b7160e01b600052602260045260246000fd5b50919050565b601f8211156200023757600081815260208120601f850160051c81016020861015620002125750805b601f850160051c820191505b8181101562000233578281556001016200021e565b5050505b505050565b81516001600160401b0381111562000258576200025862000197565b6200027081620002698454620001ad565b84620001e9565b602080601f831160018114620002a857600084156200028f5750858301515b600019600386901b1c1916600185901b17855562000233565b600085815260208120601f198616915b82811015620002d957888601518255948401946001909101908401620002b8565b5085821015620002f85787850151600019600388901b60f8161c191681555b5050505050600190811b01905550565b61253c80620003186000396000f3fe608060405234801561001057600080fd5b50600436106101cf5760003560e01c80634f6ccce711610104578063a22cb465116100a2578063d547741f11610071578063d547741f146103fa578063e7705db61461040d578063e985e9c514610434578063f12610ed1461044757600080fd5b8063a22cb4651461039a578063b88d4fde146103ad578063c87b56dd146103c0578063d5391393146103d357600080fd5b8063909a708a116100de578063909a708a1461035757806391d148541461037757806395d89b411461038a578063a217fddf1461039257600080fd5b80634f6ccce71461031e5780636352211e1461033157806370a082311461034457600080fd5b80632f2ff15d1161017157806337b6d96b1161014b57806337b6d96b146102d257806342842e0e146102e557806342966c68146102f85780634c1301e91461030b57600080fd5b80632f2ff15d146102995780632f745c59146102ac57806336568abe146102bf57600080fd5b8063095ea7b3116101ad578063095ea7b31461023c57806318160ddd1461025157806323b872dd14610263578063248a9ca31461027657600080fd5b806301ffc9a7146101d457806306fdde03146101fc578063081812fc14610211575b600080fd5b6101e76101e2366004611e40565b61045a565b60405190151581526020015b60405180910390f35b61020461046b565b6040516101f39190611ead565b61022461021f366004611ec0565b6104fd565b6040516001600160a01b0390911681526020016101f3565b61024f61024a366004611ef5565b610526565b005b6008545b6040519081526020016101f3565b61024f610271366004611f1f565b610535565b610255610284366004611ec0565b6000908152600b602052604090206001015490565b61024f6102a7366004611f5b565b6105c5565b6102556102ba366004611ef5565b6105ea565b61024f6102cd366004611f5b565b61064f565b6101e76102e0366004611ec0565b610687565b61024f6102f3366004611f1f565b6106d4565b61024f610306366004611ec0565b6106ef565b61024f610319366004611ec0565b6107af565b61025561032c366004611ec0565b610901565b61022461033f366004611ec0565b61095a565b610255610352366004611f87565b610965565b61036a610365366004611ec0565b6109ad565b6040516101f39190611fa2565b6101e7610385366004611f5b565b610bad565b610204610bd8565b610255600081565b61024f6103a836600461202b565b610be7565b61024f6103bb36600461207d565b610bf2565b6102046103ce366004611ec0565b610c0a565b6102557f9f2df0fed2c77648de5860a4cc508cd0818c85b8b8a1ab4ceeef8d981c8956a681565b61024f610408366004611f5b565b610c15565b6102557f0ce23c3e399818cfee81a7ab0880f714e53d7672b08df0fa62f2843416e1ea0981565b6101e7610442366004612159565b610c3a565b6102556104553660046121cc565b610c68565b600061046582611026565b92915050565b60606000805461047a90612260565b80601f01602080910402602001604051908101604052809291908181526020018280546104a690612260565b80156104f35780601f106104c8576101008083540402835291602001916104f3565b820191906000526020600020905b8154815290600101906020018083116104d657829003601f168201915b5050505050905090565b60006105088261104b565b506000828152600460205260409020546001600160a01b0316610465565b610531828233611084565b5050565b6001600160a01b03821661056457604051633250574960e11b8152600060048201526024015b60405180910390fd5b6000610571838333611091565b9050836001600160a01b0316816001600160a01b0316146105bf576040516364283d7b60e01b81526001600160a01b038086166004830152602482018490528216604482015260640161055b565b50505050565b6000828152600b60205260409020600101546105e081611161565b6105bf838361116e565b60006105f583610965565b82106106265760405163295f44f760e21b81526001600160a01b03841660048201526024810183905260440161055b565b506001600160a01b03919091166000908152600660209081526040808320938352929052205490565b6001600160a01b03811633146106785760405163334bd91960e11b815260040160405180910390fd5b6106828282611202565b505050565b6000818152600260205260408120546001600160a01b03166106bb5760405162461bcd60e51b815260040161055b9061229a565b506000908152600d602052604090206006015460ff1690565b61068283838360405180602001604052806000815250610bf2565b60006106fa8261095a565b9050336001600160a01b0382161480610723575033610718836104fd565b6001600160a01b0316145b8061073357506107338133610c3a565b6107775760405162461bcd60e51b81526020600482015260156024820152742737ba1030b8383937bb32b21037b91037bbb732b960591b604482015260640161055b565b6107808261126f565b60405182907fd20dd6615233f6ea374fecbfd548d1c1666cf4b91a97fd0a457a43b03ae37cad90600090a25050565b6107d97f0ce23c3e399818cfee81a7ab0880f714e53d7672b08df0fa62f2843416e1ea0933610bad565b6108255760405162461bcd60e51b815260206004820152601860248201527f43616c6c6572206973206e6f7420612076657269666965720000000000000000604482015260640161055b565b6000818152600260205260409020546001600160a01b03166108595760405162461bcd60e51b815260040161055b9061229a565b6000818152600d602052604090206006015460ff16156108bb5760405162461bcd60e51b815260206004820152601860248201527f496e766f69636520616c72656164792076657269666965640000000000000000604482015260640161055b565b6000818152600d6020526040808220600601805460ff191660011790555182917f37e578170c3ca94855b2ce5a1241b83b2feea247a181ab76fe129a1a02b6232c91a250565b600061090c60085490565b82106109355760405163295f44f760e21b8152600060048201526024810183905260440161055b565b60088281548110610948576109486122ca565b90600052602060002001549050919050565b60006104658261104b565b60006001600160a01b038216610991576040516322718ad960e21b81526000600482015260240161055b565b506001600160a01b031660009081526003602052604090205490565b6040805160e08101825260608082526000602083018190529282018390528082018390526080820183905260a082015260c0810191909152610a06826000908152600260205260409020546001600160a01b0316151590565b610a225760405162461bcd60e51b815260040161055b9061229a565b6000828152600d602052604090819020815160e08101909252805482908290610a4a90612260565b80601f0160208091040260200160405190810160405280929190818152602001828054610a7690612260565b8015610ac35780601f10610a9857610100808354040283529160200191610ac3565b820191906000526020600020905b815481529060010190602001808311610aa657829003601f168201915b505050918352505060018201546001600160a01b0390811660208301526002830154166040820152600382015460608201526004820154608082015260058201805460a090920191610b1490612260565b80601f0160208091040260200160405190810160405280929190818152602001828054610b4090612260565b8015610b8d5780601f10610b6257610100808354040283529160200191610b8d565b820191906000526020600020905b815481529060010190602001808311610b7057829003601f168201915b50505091835250506006919091015460ff16151560209091015292915050565b6000918252600b602090815260408084206001600160a01b0393909316845291905290205460ff1690565b60606001805461047a90612260565b6105313383836112aa565b610bfd848484610535565b6105bf3385858585611349565b606061046582611474565b6000828152600b6020526040902060010154610c3081611161565b6105bf8383611202565b6001600160a01b03918216600090815260056020908152604080832093909416825291909152205460ff1690565b6000610c947f9f2df0fed2c77648de5860a4cc508cd0818c85b8b8a1ab4ceeef8d981c8956a633610bad565b610cd95760405162461bcd60e51b815260206004820152601660248201527521b0b63632b91034b9903737ba10309036b4b73a32b960511b604482015260640161055b565b600e8787604051610ceb9291906122e0565b9081526040519081900360200190205460ff1615610d4b5760405162461bcd60e51b815260206004820152601760248201527f496e766f69636520494420616c72656164792075736564000000000000000000604482015260640161055b565b60008511610da75760405162461bcd60e51b8152602060048201526024808201527f43726564697420616d6f756e74206d75737420626520677265617465722074686044820152630616e20360e41b606482015260840161055b565b428411610df65760405162461bcd60e51b815260206004820152601e60248201527f4475652064617465206d75737420626520696e20746865206675747572650000604482015260640161055b565b600c805460009182610e0783612306565b919050559050610e17898261157d565b610e578185858080601f01602080910402602001604051908101604052809392919081815260200183838082843760009201919091525061159792505050565b6040518060e0016040528089898080601f0160208091040260200160405190810160405280939291908181526020018383808284376000920191909152505050908252506001600160a01b038b1660208083019190915233604080840191909152606083018a9052608083018990528051601f880183900483028101830190915286815260a09092019190879087908190840183828082843760009201829052509385525050506020918201819052838152600d9091526040902081518190610f209082612365565b5060208201516001820180546001600160a01b039283166001600160a01b0319918216179091556040840151600284018054919093169116179055606082015160038201556080820151600482015560a08201516005820190610f839082612365565b5060c091909101516006909101805460ff1916911515919091179055604051600190600e90610fb5908b908b906122e0565b908152604051908190036020018120805492151560ff19909316929092179091556001600160a01b038a169082907ffade5632407cb01608b71a7fc8904243cc1e2c9e925c6a46619c1ffa5ea5b3c990611012908c908c90612425565b60405180910390a398975050505050505050565b60006001600160e01b03198216637965db0b60e01b14806104655750610465826115e7565b6000818152600260205260408120546001600160a01b03168061046557604051637e27328960e01b81526004810184905260240161055b565b610682838383600161160c565b6000828152600d602052604081206006015460ff16806110d657506110d67f0ce23c3e399818cfee81a7ab0880f714e53d7672b08df0fa62f2843416e1ea0933610bad565b806110e857506001600160a01b038216155b806110f1575033155b61114e5760405162461bcd60e51b815260206004820152602860248201527f496e766f696365206d757374206265207665726966696564206265666f7265206044820152673a3930b739b332b960c11b606482015260840161055b565b611159848484611712565b949350505050565b61116b81336117df565b50565b600061117a8383610bad565b6111fa576000838152600b602090815260408083206001600160a01b03861684529091529020805460ff191660011790556111b23390565b6001600160a01b0316826001600160a01b0316847f2f8788117e7eff1d82e926ec794901d17c78024a50270940304540a733656f0d60405160405180910390a4506001610465565b506000610465565b600061120e8383610bad565b156111fa576000838152600b602090815260408083206001600160a01b0386168085529252808320805460ff1916905551339286917ff6391f5c32d9c69d2a47ea670b442974b53935d1edc7fd64eb21e047a839171b9190a4506001610465565b600061127e6000836000611091565b90506001600160a01b03811661053157604051637e27328960e01b81526004810183905260240161055b565b6001600160a01b0382166112dc57604051630b61174360e31b81526001600160a01b038316600482015260240161055b565b6001600160a01b03838116600081815260056020908152604080832094871680845294825291829020805460ff191686151590811790915591519182527f17307eab39ab6107e8899845ad3d59bd9653f200f220920489ca2b5937696c31910160405180910390a3505050565b6001600160a01b0383163b1561146d57604051630a85bd0160e11b81526001600160a01b0384169063150b7a029061138b908890889087908790600401612454565b6020604051808303816000875af19250505080156113c6575060408051601f3d908101601f191682019092526113c391810190612491565b60015b61142f573d8080156113f4576040519150601f19603f3d011682016040523d82523d6000602084013e6113f9565b606091505b50805160000361142757604051633250574960e11b81526001600160a01b038516600482015260240161055b565b805181602001fd5b6001600160e01b03198116630a85bd0160e11b1461146b57604051633250574960e11b81526001600160a01b038516600482015260240161055b565b505b5050505050565b606061147f8261104b565b506000828152600a60205260408120805461149990612260565b80601f01602080910402602001604051908101604052809291908181526020018280546114c590612260565b80156115125780601f106114e757610100808354040283529160200191611512565b820191906000526020600020905b8154815290600101906020018083116114f557829003601f168201915b50505050509050600061153060408051602081019091526000815290565b90508051600003611542575092915050565b81511561157457808260405160200161155c9291906124ae565b60405160208183030381529060405292505050919050565b61115984611818565b61053182826040518060200160405280600081525061188d565b6000828152600a602052604090206115af8282612365565b506040518281527ff8e1a15aba9398e019f0b49df1a4fde98ee17ae345cb5f6b5e2c27f5033e8ce79060200160405180910390a15050565b60006001600160e01b03198216632483248360e11b14806104655750610465826118a5565b808061162057506001600160a01b03821615155b156116e25760006116308461104b565b90506001600160a01b0383161580159061165c5750826001600160a01b0316816001600160a01b031614155b801561166f575061166d8184610c3a565b155b156116985760405163a9fbf51f60e01b81526001600160a01b038416600482015260240161055b565b81156116e05783856001600160a01b0316826001600160a01b03167f8c5be1e5ebec7d5bd14f71427d1e84f3dd0314c0f7b2291e5b200ac8c7c3b92560405160405180910390a45b505b5050600090815260046020526040902080546001600160a01b0319166001600160a01b0392909216919091179055565b6000806117208585856118ca565b90506001600160a01b03811661177d5761177884600880546000838152600960205260408120829055600182018355919091527ff3f7a9fe364faab93b216da50a3214154f22a0a2b415b23a84c8169e8b636ee30155565b6117a0565b846001600160a01b0316816001600160a01b0316146117a0576117a081856119c3565b6001600160a01b0385166117bc576117b784611a44565b611159565b846001600160a01b0316816001600160a01b031614611159576111598585611af3565b6117e98282610bad565b6105315760405163e2517d3f60e01b81526001600160a01b03821660048201526024810183905260440161055b565b60606118238261104b565b50600061183b60408051602081019091526000815290565b9050600081511161185b5760405180602001604052806000815250611886565b8061186584611b43565b6040516020016118769291906124ae565b6040516020818303038152906040525b9392505050565b6118978383611bd6565b610682336000858585611349565b60006001600160e01b0319821663780e9d6360e01b1480610465575061046582611c3b565b6000828152600260205260408120546001600160a01b03908116908316156118f7576118f7818486611c8b565b6001600160a01b038116156119355761191460008560008061160c565b6001600160a01b038116600090815260036020526040902080546000190190555b6001600160a01b03851615611964576001600160a01b0385166000908152600360205260409020805460010190555b60008481526002602052604080822080546001600160a01b0319166001600160a01b0389811691821790925591518793918516917fddf252ad1be2c89b69c2b068fc378daa952ba7f163c4a11628f55a4df523b3ef91a4949350505050565b60006119ce83610965565b6000838152600760209081526040808320546001600160a01b0388168452600690925290912091925090818314611a2557600083815260208281526040808320548584528184208190558352600790915290208290555b6000938452600760209081526040808620869055938552525081205550565b600854600090611a56906001906124dd565b60008381526009602052604081205460088054939450909284908110611a7e57611a7e6122ca565b906000526020600020015490508060088381548110611a9f57611a9f6122ca565b6000918252602080832090910192909255828152600990915260408082208490558582528120556008805480611ad757611ad76124f0565b6001900381819060005260206000200160009055905550505050565b60006001611b0084610965565b611b0a91906124dd565b6001600160a01b039093166000908152600660209081526040808320868452825280832085905593825260079052919091209190915550565b60606000611b5083611cef565b600101905060008167ffffffffffffffff811115611b7057611b70612067565b6040519080825280601f01601f191660200182016040528015611b9a576020820181803683370190505b5090508181016020015b600019016f181899199a1a9b1b9c1cb0b131b232b360811b600a86061a8153600a8504945084611ba457509392505050565b6001600160a01b038216611c0057604051633250574960e11b81526000600482015260240161055b565b6000611c0e83836000611091565b90506001600160a01b03811615610682576040516339e3563760e11b81526000600482015260240161055b565b60006001600160e01b031982166380ac58cd60e01b1480611c6c57506001600160e01b03198216635b5e139f60e01b145b8061046557506301ffc9a760e01b6001600160e01b0319831614610465565b611c96838383611dc7565b610682576001600160a01b038316611cc457604051637e27328960e01b81526004810182905260240161055b565b60405163177e802f60e01b81526001600160a01b03831660048201526024810182905260440161055b565b60008072184f03e93ff9f4daa797ed6e38ed64bf6a1f0160401b8310611d2e5772184f03e93ff9f4daa797ed6e38ed64bf6a1f0160401b830492506040015b6d04ee2d6d415b85acef81000000008310611d5a576d04ee2d6d415b85acef8100000000830492506020015b662386f26fc100008310611d7857662386f26fc10000830492506010015b6305f5e1008310611d90576305f5e100830492506008015b6127108310611da457612710830492506004015b60648310611db6576064830492506002015b600a83106104655760010192915050565b60006001600160a01b038316158015906111595750826001600160a01b0316846001600160a01b03161480611e015750611e018484610c3a565b806111595750506000908152600460205260409020546001600160a01b03908116911614919050565b6001600160e01b03198116811461116b57600080fd5b600060208284031215611e5257600080fd5b813561188681611e2a565b60005b83811015611e78578181015183820152602001611e60565b50506000910152565b60008151808452611e99816020860160208601611e5d565b601f01601f19169290920160200192915050565b6020815260006118866020830184611e81565b600060208284031215611ed257600080fd5b5035919050565b80356001600160a01b0381168114611ef057600080fd5b919050565b60008060408385031215611f0857600080fd5b611f1183611ed9565b946020939093013593505050565b600080600060608486031215611f3457600080fd5b611f3d84611ed9565b9250611f4b60208501611ed9565b9150604084013590509250925092565b60008060408385031215611f6e57600080fd5b82359150611f7e60208401611ed9565b90509250929050565b600060208284031215611f9957600080fd5b61188682611ed9565b602081526000825160e06020840152611fbf610100840182611e81565b9050602084015160018060a01b038082166040860152806040870151166060860152505060608401516080840152608084015160a084015260a0840151601f198483030160c08501526120128282611e81565b91505060c0840151151560e08401528091505092915050565b6000806040838503121561203e57600080fd5b61204783611ed9565b91506020830135801515811461205c57600080fd5b809150509250929050565b634e487b7160e01b600052604160045260246000fd5b6000806000806080858703121561209357600080fd5b61209c85611ed9565b93506120aa60208601611ed9565b925060408501359150606085013567ffffffffffffffff808211156120ce57600080fd5b818701915087601f8301126120e257600080fd5b8135818111156120f4576120f4612067565b604051601f8201601f19908116603f0116810190838211818310171561211c5761211c612067565b816040528281528a602084870101111561213557600080fd5b82602086016020830137600060208483010152809550505050505092959194509250565b6000806040838503121561216c57600080fd5b61217583611ed9565b9150611f7e60208401611ed9565b60008083601f84011261219557600080fd5b50813567ffffffffffffffff8111156121ad57600080fd5b6020830191508360208285010111156121c557600080fd5b9250929050565b600080600080600080600060a0888a0312156121e757600080fd5b6121f088611ed9565b9650602088013567ffffffffffffffff8082111561220d57600080fd5b6122198b838c01612183565b909850965060408a0135955060608a0135945060808a013591508082111561224057600080fd5b5061224d8a828b01612183565b989b979a50959850939692959293505050565b600181811c9082168061227457607f821691505b60208210810361229457634e487b7160e01b600052602260045260246000fd5b50919050565b602080825260169082015275125b9d9bda58d948191bd95cc81b9bdd08195e1a5cdd60521b604082015260600190565b634e487b7160e01b600052603260045260246000fd5b8183823760009101908152919050565b634e487b7160e01b600052601160045260246000fd5b600060018201612318576123186122f0565b5060010190565b601f82111561068257600081815260208120601f850160051c810160208610156123465750805b601f850160051c820191505b8181101561146b57828155600101612352565b815167ffffffffffffffff81111561237f5761237f612067565b6123938161238d8454612260565b8461231f565b602080601f8311600181146123c857600084156123b05750858301515b600019600386901b1c1916600185901b17855561146b565b600085815260208120601f198616915b828110156123f7578886015182559484019460019091019084016123d8565b50858210156124155787850151600019600388901b60f8161c191681555b5050505050600190811b01905550565b60208152816020820152818360408301376000818301604090810191909152601f909201601f19160101919050565b6001600160a01b038581168252841660208201526040810183905260806060820181905260009061248790830184611e81565b9695505050505050565b6000602082840312156124a357600080fd5b815161188681611e2a565b600083516124c0818460208801611e5d565b8351908301906124d4818360208801611e5d565b01949350505050565b81810381811115610465576104656122f0565b634e487b7160e01b600052603160045260246000fdfea2646970667358221220f866d307f0bf6c6b9555fd34587fb4dcc87adc5f3650af82e6a54387660246de64736f6c63430008140033",
  "linkReferences": {},
  "deployedLinkReferences": {}
}