{
  "_format": "hh-sol-artifact-1",
  "contractName": "LendingPool",
  "sourceName": "contracts/LendingPool.sol",
  "abi": [
    {
      "inputs": [
        {
          "internalType": "address",
          "name": "_metrikToken",
          "type": "address"
        },
        {
          "internalType": "address",
          "name": "_stablecoin",
          "type": "address"
        },
        {
          "internalType": "address",
          "name": "_invoiceNFT",
          "type": "address"
        },
        {
          "internalType": "address",
          "name": "_staking",
          "type": "address"
        }
      ],
      "stateMutability": "nonpayable",
      "type": "constructor"
    },
    {
      "inputs": [],
      "name": "InsufficientBalance",
      "type": "error"
    },
    {
      "inputs": [],
      "name": "InsufficientLiquidity",
      "type": "error"
    },
    {
      "inputs": [],
      "name": "InvalidAmount",
      "type": "error"
    },
    {
      "inputs": [],
      "name": "InvalidBorrowAmount",
      "type": "error"
    },
    {
      "inputs": [],
      "name": "InvoiceExpired",
      "type": "error"
    },
    {
      "inputs": [],
      "name": "InvoiceNotVerified",
      "type": "error"
    },
    {
      "inputs": [],
      "name": "LoanAlreadyExists",
      "type": "error"
    },
    {
      "inputs": [],
      "name": "LoanAlreadySettled",
      "type": "error"
    },
    {
      "inputs": [],
      "name": "LoanNotOverdue",
      "type": "error"
    },
    {
      "inputs": [],
      "name": "NoStakedTokensFound",
      "type": "error"
    },
    {
      "inputs": [],
      "name": "NotInvoiceSupplier",
      "type": "error"
    },
    {
      "inputs": [],
      "name": "NotLoanOwner",
      "type": "error"
    },
    {
      "inputs": [
        {
          "internalType": "address",
          "name": "owner",
          "type": "address"
        }
      ],
      "name": "OwnableInvalidOwner",
      "type": "error"
    },
    {
      "inputs": [
        {
          "internalType": "address",
          "name": "account",
          "type": "address"
        }
      ],
      "name": "OwnableUnauthorizedAccount",
      "type": "error"
    },
    {
      "inputs": [],
      "name": "ReentrancyGuardReentrantCall",
      "type": "error"
    },
    {
      "inputs": [
        {
          "internalType": "address",
          "name": "token",
          "type": "address"
        }
      ],
      "name": "SafeERC20FailedOperation",
      "type": "error"
    },
    {
      "anonymous": false,
      "inputs": [
        {
          "indexed": true,
          "internalType": "address",
          "name": "user",
          "type": "address"
        },
        {
          "indexed": false,
          "internalType": "uint256",
          "name": "invoiceId",
          "type": "uint256"
        },
        {
          "indexed": false,
          "internalType": "uint256",
          "name": "amount",
          "type": "uint256"
        }
      ],
      "name": "Borrow",
      "type": "event"
    },
    {
      "anonymous": false,
      "inputs": [
        {
          "indexed": false,
          "internalType": "string",
          "name": "message",
          "type": "string"
        },
        {
          "indexed": true,
          "internalType": "address",
          "name": "supplier",
          "type": "address"
        }
      ],
      "name": "DebugLog",
      "type": "event"
    },
    {
      "anonymous": false,
      "inputs": [
        {
          "indexed": false,
          "internalType": "string",
          "name": "message",
          "type": "string"
        },
        {
          "indexed": false,
          "internalType": "uint256",
          "name": "value",
          "type": "uint256"
        }
      ],
      "name": "DebugLogValue",
      "type": "event"
    },
    {
      "anonymous": false,
      "inputs": [
        {
          "indexed": true,
          "internalType": "address",
          "name": "user",
          "type": "address"
        },
        {
          "indexed": false,
          "internalType": "uint256",
          "name": "amount",
          "type": "uint256"
        },
        {
          "indexed": false,
          "internalType": "uint256",
          "name": "depositId",
          "type": "uint256"
        }
      ],
      "name": "Deposit",
      "type": "event"
    },
    {
      "anonymous": false,
      "inputs": [
        {
          "indexed": true,
          "internalType": "address",
          "name": "user",
          "type": "address"
        },
        {
          "indexed": false,
          "internalType": "uint256",
          "name": "amount",
          "type": "uint256"
        }
      ],
      "name": "InterestWithdraw",
      "type": "event"
    },
    {
      "anonymous": false,
      "inputs": [
        {
          "indexed": true,
          "internalType": "uint256",
          "name": "invoiceId",
          "type": "uint256"
        }
      ],
      "name": "InvoiceBurned",
      "type": "event"
    },
    {
      "anonymous": false,
      "inputs": [
        {
          "indexed": true,
          "internalType": "address",
          "name": "lp",
          "type": "address"
        }
      ],
      "name": "LPRegistered",
      "type": "event"
    },
    {
      "anonymous": false,
      "inputs": [
        {
          "indexed": true,
          "internalType": "address",
          "name": "lp",
          "type": "address"
        }
      ],
      "name": "LPUnregistered",
      "type": "event"
    },
    {
      "anonymous": false,
      "inputs": [
        {
          "indexed": true,
          "internalType": "uint256",
          "name": "invoiceId",
          "type": "uint256"
        },
        {
          "indexed": true,
          "internalType": "address",
          "name": "liquidator",
          "type": "address"
        },
        {
          "indexed": false,
          "internalType": "uint256",
          "name": "amount",
          "type": "uint256"
        }
      ],
      "name": "Liquidate",
      "type": "event"
    },
    {
      "anonymous": false,
      "inputs": [
        {
          "indexed": true,
          "internalType": "uint256",
          "name": "invoiceId",
          "type": "uint256"
        },
        {
          "indexed": true,
          "internalType": "address",
          "name": "supplier",
          "type": "address"
        },
        {
          "indexed": false,
          "internalType": "uint256",
          "name": "amount",
          "type": "uint256"
        }
      ],
      "name": "LoanCreated",
      "type": "event"
    },
    {
      "anonymous": false,
      "inputs": [
        {
          "indexed": true,
          "internalType": "uint256",
          "name": "invoiceId",
          "type": "uint256"
        },
        {
          "indexed": true,
          "internalType": "address",
          "name": "supplier",
          "type": "address"
        },
        {
          "indexed": false,
          "internalType": "uint256",
          "name": "amount",
          "type": "uint256"
        }
      ],
      "name": "LoanLiquidated",
      "type": "event"
    },
    {
      "anonymous": false,
      "inputs": [
        {
          "indexed": true,
          "internalType": "uint256",
          "name": "invoiceId",
          "type": "uint256"
        },
        {
          "indexed": true,
          "internalType": "address",
          "name": "supplier",
          "type": "address"
        },
        {
          "indexed": false,
          "internalType": "uint256",
          "name": "amount",
          "type": "uint256"
        }
      ],
      "name": "LoanRepaid",
      "type": "event"
    },
    {
      "anonymous": false,
      "inputs": [
        {
          "indexed": false,
          "internalType": "uint256",
          "name": "newPercent",
          "type": "uint256"
        }
      ],
      "name": "MaxLoanPercentUpdated",
      "type": "event"
    },
    {
      "anonymous": false,
      "inputs": [
        {
          "indexed": true,
          "internalType": "address",
          "name": "previousOwner",
          "type": "address"
        },
        {
          "indexed": true,
          "internalType": "address",
          "name": "newOwner",
          "type": "address"
        }
      ],
      "name": "OwnershipTransferred",
      "type": "event"
    },
    {
      "anonymous": false,
      "inputs": [
        {
          "indexed": true,
          "internalType": "address",
          "name": "user",
          "type": "address"
        },
        {
          "indexed": false,
          "internalType": "uint256",
          "name": "invoiceId",
          "type": "uint256"
        },
        {
          "indexed": false,
          "internalType": "uint256",
          "name": "amount",
          "type": "uint256"
        }
      ],
      "name": "Repay",
      "type": "event"
    },
    {
      "anonymous": false,
      "inputs": [
        {
          "indexed": false,
          "internalType": "uint256",
          "name": "newRatio",
          "type": "uint256"
        }
      ],
      "name": "ReserveRatioUpdated",
      "type": "event"
    },
    {
      "anonymous": false,
      "inputs": [
        {
          "indexed": false,
          "internalType": "string",
          "name": "supplierId",
          "type": "string"
        }
      ],
      "name": "SupplierBlacklisted",
      "type": "event"
    },
    {
      "anonymous": false,
      "inputs": [
        {
          "indexed": true,
          "internalType": "address",
          "name": "user",
          "type": "address"
        },
        {
          "indexed": false,
          "internalType": "uint256",
          "name": "amount",
          "type": "uint256"
        }
      ],
      "name": "Withdraw",
      "type": "event"
    },
    {
      "inputs": [],
      "name": "BASIS_POINTS",
      "outputs": [
        {
          "internalType": "uint256",
          "name": "",
          "type": "uint256"
        }
      ],
      "stateMutability": "view",
      "type": "function"
    },
    {
      "inputs": [],
      "name": "BORROWER_INTEREST_RATE",
      "outputs": [
        {
          "internalType": "uint256",
          "name": "",
          "type": "uint256"
        }
      ],
      "stateMutability": "view",
      "type": "function"
    },
    {
      "inputs": [],
      "name": "BORROW_CAP_PERCENTAGE",
      "outputs": [
        {
          "internalType": "uint256",
          "name": "",
          "type": "uint256"
        }
      ],
      "stateMutability": "view",
      "type": "function"
    },
    {
      "inputs": [],
      "name": "JUNIOR_LP_INTEREST_RATE",
      "outputs": [
        {
          "internalType": "uint256",
          "name": "",
          "type": "uint256"
        }
      ],
      "stateMutability": "view",
      "type": "function"
    },
    {
      "inputs": [],
      "name": "LP_INTEREST_RATE",
      "outputs": [
        {
          "internalType": "uint256",
          "name": "",
          "type": "uint256"
        }
      ],
      "stateMutability": "view",
      "type": "function"
    },
    {
      "inputs": [],
      "name": "PLATFORM_FEE",
      "outputs": [
        {
          "internalType": "uint256",
          "name": "",
          "type": "uint256"
        }
      ],
      "stateMutability": "view",
      "type": "function"
    },
    {
      "inputs": [],
      "name": "SENIOR_LP_INTEREST_RATE",
      "outputs": [
        {
          "internalType": "uint256",
          "name": "",
          "type": "uint256"
        }
      ],
      "stateMutability": "view",
      "type": "function"
    },
    {
      "inputs": [
        {
          "internalType": "string",
          "name": "",
          "type": "string"
        }
      ],
      "name": "blacklistedSuppliers",
      "outputs": [
        {
          "internalType": "bool",
          "name": "",
          "type": "bool"
        }
      ],
      "stateMutability": "view",
      "type": "function"
    },
    {
      "inputs": [],
      "name": "borrowRegistry",
      "outputs": [
        {
          "internalType": "contract IBorrowRegistry",
          "name": "",
          "type": "address"
        }
      ],
      "stateMutability": "view",
      "type": "function"
    },
    {
      "inputs": [
        {
          "internalType": "uint256",
          "name": "principal",
          "type": "uint256"
        },
        {
          "internalType": "uint256",
          "name": "startTime",
          "type": "uint256"
        },
        {
          "internalType": "uint256",
          "name": "rate",
          "type": "uint256"
        }
      ],
      "name": "calculateInterest",
      "outputs": [
        {
          "internalType": "uint256",
          "name": "",
          "type": "uint256"
        }
      ],
      "stateMutability": "view",
      "type": "function"
    },
    {
      "inputs": [
        {
          "internalType": "uint256",
          "name": "amount",
          "type": "uint256"
        }
      ],
      "name": "deposit",
      "outputs": [],
      "stateMutability": "nonpayable",
      "type": "function"
    },
    {
      "inputs": [
        {
          "internalType": "uint256",
          "name": "tokenId",
          "type": "uint256"
        },
        {
          "internalType": "uint256",
          "name": "borrowAmount",
          "type": "uint256"
        }
      ],
      "name": "depositInvoiceAndBorrow",
      "outputs": [],
      "stateMutability": "nonpayable",
      "type": "function"
    },
    {
      "inputs": [
        {
          "internalType": "uint256",
          "name": "amount",
          "type": "uint256"
        },
        {
          "internalType": "enum LendingPool.Tranche",
          "name": "tranche",
          "type": "uint8"
        },
        {
          "internalType": "uint256",
          "name": "lockupDuration",
          "type": "uint256"
        }
      ],
      "name": "depositWithTranche",
      "outputs": [],
      "stateMutability": "nonpayable",
      "type": "function"
    },
    {
      "inputs": [],
      "name": "getAllRegisteredLPs",
      "outputs": [
        {
          "internalType": "address[]",
          "name": "",
          "type": "address[]"
        }
      ],
      "stateMutability": "view",
      "type": "function"
    },
    {
      "inputs": [
        {
          "internalType": "address",
          "name": "user",
          "type": "address"
        }
      ],
      "name": "getBorrowingCapacity",
      "outputs": [
        {
          "internalType": "uint256",
          "name": "ltv",
          "type": "uint256"
        }
      ],
      "stateMutability": "view",
      "type": "function"
    },
    {
      "inputs": [
        {
          "internalType": "address",
          "name": "user",
          "type": "address"
        },
        {
          "internalType": "uint256",
          "name": "depositIndex",
          "type": "uint256"
        }
      ],
      "name": "getDepositDetails",
      "outputs": [
        {
          "internalType": "uint256",
          "name": "amount",
          "type": "uint256"
        },
        {
          "internalType": "uint256",
          "name": "depositTime",
          "type": "uint256"
        },
        {
          "internalType": "uint256",
          "name": "lastInterestClaimed",
          "type": "uint256"
        },
        {
          "internalType": "uint256",
          "name": "withdrawnAmount",
          "type": "uint256"
        },
        {
          "internalType": "uint256",
          "name": "depositId",
          "type": "uint256"
        },
        {
          "internalType": "enum LendingPool.Tranche",
          "name": "tranche",
          "type": "uint8"
        },
        {
          "internalType": "uint256",
          "name": "lockupDuration",
          "type": "uint256"
        },
        {
          "internalType": "bool",
          "name": "isLocked",
          "type": "bool"
        }
      ],
      "stateMutability": "view",
      "type": "function"
    },
    {
      "inputs": [
        {
          "internalType": "address",
          "name": "lp",
          "type": "address"
        }
      ],
      "name": "getLPActiveDeposits",
      "outputs": [
        {
          "components": [
            {
              "internalType": "uint256",
              "name": "amount",
              "type": "uint256"
            },
            {
              "internalType": "uint256",
              "name": "depositTime",
              "type": "uint256"
            },
            {
              "internalType": "uint256",
              "name": "lastInterestClaimed",
              "type": "uint256"
            },
            {
              "internalType": "uint256",
              "name": "withdrawnAmount",
              "type": "uint256"
            },
            {
              "internalType": "uint256",
              "name": "depositId",
              "type": "uint256"
            },
            {
              "internalType": "enum LendingPool.Tranche",
              "name": "tranche",
              "type": "uint8"
            },
            {
              "internalType": "uint256",
              "name": "lockupDuration",
              "type": "uint256"
            }
          ],
          "internalType": "struct LendingPool.LPDeposit[]",
          "name": "",
          "type": "tuple[]"
        }
      ],
      "stateMutability": "view",
      "type": "function"
    },
    {
      "inputs": [
        {
          "internalType": "address",
          "name": "lp",
          "type": "address"
        }
      ],
      "name": "getLPInterest",
      "outputs": [
        {
          "internalType": "uint256",
          "name": "",
          "type": "uint256"
        }
      ],
      "stateMutability": "view",
      "type": "function"
    },
    {
      "inputs": [
        {
          "internalType": "address",
          "name": "lp",
          "type": "address"
        }
      ],
      "name": "getLPTrancheBreakdown",
      "outputs": [
        {
          "internalType": "uint256",
          "name": "juniorPrincipal",
          "type": "uint256"
        },
        {
          "internalType": "uint256",
          "name": "seniorPrincipal",
          "type": "uint256"
        }
      ],
      "stateMutability": "view",
      "type": "function"
    },
    {
      "inputs": [
        {
          "internalType": "uint256",
          "name": "tokenId",
          "type": "uint256"
        }
      ],
      "name": "getMaxBorrowAmount",
      "outputs": [
        {
          "internalType": "uint256",
          "name": "",
          "type": "uint256"
        }
      ],
      "stateMutability": "view",
      "type": "function"
    },
    {
      "inputs": [
        {
          "internalType": "address",
          "name": "user",
          "type": "address"
        },
        {
          "internalType": "uint256",
          "name": "invoiceAmount",
          "type": "uint256"
        }
      ],
      "name": "getSafeLendingAmount",
      "outputs": [
        {
          "internalType": "uint256",
          "name": "",
          "type": "uint256"
        }
      ],
      "stateMutability": "view",
      "type": "function"
    },
    {
      "inputs": [
        {
          "internalType": "address",
          "name": "user",
          "type": "address"
        }
      ],
      "name": "getSeniorLockedBalance",
      "outputs": [
        {
          "internalType": "uint256",
          "name": "",
          "type": "uint256"
        }
      ],
      "stateMutability": "view",
      "type": "function"
    },
    {
      "inputs": [],
      "name": "getSystemWideSafeLendingAmount",
      "outputs": [
        {
          "internalType": "uint256",
          "name": "",
          "type": "uint256"
        }
      ],
      "stateMutability": "view",
      "type": "function"
    },
    {
      "inputs": [
        {
          "internalType": "address",
          "name": "user",
          "type": "address"
        },
        {
          "internalType": "enum LendingPool.Tranche",
          "name": "tranche",
          "type": "uint8"
        }
      ],
      "name": "getTrancheAvailableBalance",
      "outputs": [
        {
          "internalType": "uint256",
          "name": "",
          "type": "uint256"
        }
      ],
      "stateMutability": "view",
      "type": "function"
    },
    {
      "inputs": [
        {
          "internalType": "address",
          "name": "user",
          "type": "address"
        },
        {
          "internalType": "enum LendingPool.Tranche",
          "name": "tranche",
          "type": "uint8"
        }
      ],
      "name": "getTrancheDeposits",
      "outputs": [
        {
          "internalType": "uint256",
          "name": "",
          "type": "uint256"
        }
      ],
      "stateMutability": "view",
      "type": "function"
    },
    {
      "inputs": [
        {
          "internalType": "address",
          "name": "user",
          "type": "address"
        },
        {
          "internalType": "enum LendingPool.Tranche",
          "name": "tranche",
          "type": "uint8"
        }
      ],
      "name": "getTranchePendingInterest",
      "outputs": [
        {
          "internalType": "uint256",
          "name": "",
          "type": "uint256"
        }
      ],
      "stateMutability": "view",
      "type": "function"
    },
    {
      "inputs": [
        {
          "internalType": "address",
          "name": "user",
          "type": "address"
        }
      ],
      "name": "getUserActiveLoans",
      "outputs": [
        {
          "internalType": "uint256[]",
          "name": "",
          "type": "uint256[]"
        }
      ],
      "stateMutability": "view",
      "type": "function"
    },
    {
      "inputs": [
        {
          "internalType": "address",
          "name": "user",
          "type": "address"
        }
      ],
      "name": "getUserDepositCount",
      "outputs": [
        {
          "internalType": "uint256",
          "name": "",
          "type": "uint256"
        }
      ],
      "stateMutability": "view",
      "type": "function"
    },
    {
      "inputs": [
        {
          "internalType": "address",
          "name": "user",
          "type": "address"
        }
      ],
      "name": "getUserLPDeposits",
      "outputs": [
        {
          "components": [
            {
              "internalType": "uint256",
              "name": "amount",
              "type": "uint256"
            },
            {
              "internalType": "uint256",
              "name": "depositTime",
              "type": "uint256"
            },
            {
              "internalType": "uint256",
              "name": "lastInterestClaimed",
              "type": "uint256"
            },
            {
              "internalType": "uint256",
              "name": "withdrawnAmount",
              "type": "uint256"
            },
            {
              "internalType": "uint256",
              "name": "depositId",
              "type": "uint256"
            },
            {
              "internalType": "enum LendingPool.Tranche",
              "name": "tranche",
              "type": "uint8"
            },
            {
              "internalType": "uint256",
              "name": "lockupDuration",
              "type": "uint256"
            }
          ],
          "internalType": "struct LendingPool.LPDeposit[]",
          "name": "",
          "type": "tuple[]"
        }
      ],
      "stateMutability": "view",
      "type": "function"
    },
    {
      "inputs": [
        {
          "internalType": "address",
          "name": "user",
          "type": "address"
        },
        {
          "internalType": "uint256",
          "name": "tokenId",
          "type": "uint256"
        }
      ],
      "name": "getUserLoanDetails",
      "outputs": [
        {
          "internalType": "uint256",
          "name": "amount",
          "type": "uint256"
        },
        {
          "internalType": "uint256",
          "name": "dueDate",
          "type": "uint256"
        },
        {
          "internalType": "bool",
          "name": "isRepaid",
          "type": "bool"
        },
        {
          "internalType": "bool",
          "name": "isLiquidated",
          "type": "bool"
        },
        {
          "internalType": "uint256",
          "name": "interestAccrued",
          "type": "uint256"
        }
      ],
      "stateMutability": "view",
      "type": "function"
    },
    {
      "inputs": [
        {
          "internalType": "address",
          "name": "user",
          "type": "address"
        }
      ],
      "name": "getUserLoans",
      "outputs": [
        {
          "internalType": "uint256[]",
          "name": "",
          "type": "uint256[]"
        }
      ],
      "stateMutability": "view",
      "type": "function"
    },
    {
      "inputs": [
        {
          "internalType": "address",
          "name": "user",
          "type": "address"
        }
      ],
      "name": "getUserTotalBorrowed",
      "outputs": [
        {
          "internalType": "uint256",
          "name": "",
          "type": "uint256"
        }
      ],
      "stateMutability": "view",
      "type": "function"
    },
    {
      "inputs": [
        {
          "internalType": "address",
          "name": "user",
          "type": "address"
        }
      ],
      "name": "getUserTotalLPDeposits",
      "outputs": [
        {
          "internalType": "uint256",
          "name": "",
          "type": "uint256"
        }
      ],
      "stateMutability": "view",
      "type": "function"
    },
    {
      "inputs": [],
      "name": "getUtilization",
      "outputs": [
        {
          "internalType": "uint256",
          "name": "",
          "type": "uint256"
        }
      ],
      "stateMutability": "view",
      "type": "function"
    },
    {
      "inputs": [],
      "name": "iStaking",
      "outputs": [
        {
          "internalType": "contract IStaking",
          "name": "",
          "type": "address"
        }
      ],
      "stateMutability": "view",
      "type": "function"
    },
    {
      "inputs": [],
      "name": "invoiceNFT",
      "outputs": [
        {
          "internalType": "contract InvoiceNFT",
          "name": "",
          "type": "address"
        }
      ],
      "stateMutability": "view",
      "type": "function"
    },
    {
      "inputs": [
        {
          "internalType": "address",
          "name": "",
          "type": "address"
        }
      ],
      "name": "isRegisteredLP",
      "outputs": [
        {
          "internalType": "bool",
          "name": "",
          "type": "bool"
        }
      ],
      "stateMutability": "view",
      "type": "function"
    },
    {
      "inputs": [],
      "name": "lastInterestUpdate",
      "outputs": [
        {
          "internalType": "uint256",
          "name": "",
          "type": "uint256"
        }
      ],
      "stateMutability": "view",
      "type": "function"
    },
    {
      "inputs": [
        {
          "internalType": "uint256",
          "name": "invoiceId",
          "type": "uint256"
        },
        {
          "internalType": "string",
          "name": "supplierId",
          "type": "string"
        }
      ],
      "name": "liquidate",
      "outputs": [],
      "stateMutability": "nonpayable",
      "type": "function"
    },
    {
      "inputs": [
        {
          "internalType": "uint256",
          "name": "",
          "type": "uint256"
        }
      ],
      "name": "loans",
      "outputs": [
        {
          "internalType": "uint256",
          "name": "invoiceId",
          "type": "uint256"
        },
        {
          "internalType": "uint256",
          "name": "amount",
          "type": "uint256"
        },
        {
          "internalType": "uint256",
          "name": "dueDate",
          "type": "uint256"
        },
        {
          "internalType": "bool",
          "name": "isRepaid",
          "type": "bool"
        },
        {
          "internalType": "bool",
          "name": "isLiquidated",
          "type": "bool"
        },
        {
          "internalType": "uint256",
          "name": "interestAccrued",
          "type": "uint256"
        },
        {
          "internalType": "uint256",
          "name": "lastInterestUpdate",
          "type": "uint256"
        },
        {
          "internalType": "address",
          "name": "supplier",
          "type": "address"
        },
        {
          "internalType": "uint256",
          "name": "borrowAmount",
          "type": "uint256"
        },
        {
          "internalType": "uint256",
          "name": "borrowTime",
          "type": "uint256"
        }
      ],
      "stateMutability": "view",
      "type": "function"
    },
    {
      "inputs": [
        {
          "internalType": "uint256",
          "name": "",
          "type": "uint256"
        }
      ],
      "name": "lpAddresses",
      "outputs": [
        {
          "internalType": "address",
          "name": "",
          "type": "address"
        }
      ],
      "stateMutability": "view",
      "type": "function"
    },
    {
      "inputs": [
        {
          "internalType": "address",
          "name": "",
          "type": "address"
        },
        {
          "internalType": "uint256",
          "name": "",
          "type": "uint256"
        }
      ],
      "name": "lpDeposits",
      "outputs": [
        {
          "internalType": "uint256",
          "name": "amount",
          "type": "uint256"
        },
        {
          "internalType": "uint256",
          "name": "depositTime",
          "type": "uint256"
        },
        {
          "internalType": "uint256",
          "name": "lastInterestClaimed",
          "type": "uint256"
        },
        {
          "internalType": "uint256",
          "name": "withdrawnAmount",
          "type": "uint256"
        },
        {
          "internalType": "uint256",
          "name": "depositId",
          "type": "uint256"
        },
        {
          "internalType": "enum LendingPool.Tranche",
          "name": "tranche",
          "type": "uint8"
        },
        {
          "internalType": "uint256",
          "name": "lockupDuration",
          "type": "uint256"
        }
      ],
      "stateMutability": "view",
      "type": "function"
    },
    {
      "inputs": [
        {
          "internalType": "address",
          "name": "",
          "type": "address"
        }
      ],
      "name": "lpIndex",
      "outputs": [
        {
          "internalType": "uint256",
          "name": "",
          "type": "uint256"
        }
      ],
      "stateMutability": "view",
      "type": "function"
    },
    {
      "inputs": [
        {
          "internalType": "address",
          "name": "",
          "type": "address"
        }
      ],
      "name": "lpTotalDeposits",
      "outputs": [
        {
          "internalType": "uint256",
          "name": "",
          "type": "uint256"
        }
      ],
      "stateMutability": "view",
      "type": "function"
    },
    {
      "inputs": [
        {
          "internalType": "address",
          "name": "",
          "type": "address"
        }
      ],
      "name": "lpTotalInterest",
      "outputs": [
        {
          "internalType": "uint256",
          "name": "",
          "type": "uint256"
        }
      ],
      "stateMutability": "view",
      "type": "function"
    },
    {
      "inputs": [],
      "name": "maxLoanPercent",
      "outputs": [
        {
          "internalType": "uint256",
          "name": "",
          "type": "uint256"
        }
      ],
      "stateMutability": "view",
      "type": "function"
    },
    {
      "inputs": [],
      "name": "metrikToken",
      "outputs": [
        {
          "internalType": "contract IERC20",
          "name": "",
          "type": "address"
        }
      ],
      "stateMutability": "view",
      "type": "function"
    },
    {
      "inputs": [],
      "name": "owner",
      "outputs": [
        {
          "internalType": "address",
          "name": "",
          "type": "address"
        }
      ],
      "stateMutability": "view",
      "type": "function"
    },
    {
      "inputs": [],
      "name": "platformFees",
      "outputs": [
        {
          "internalType": "uint256",
          "name": "",
          "type": "uint256"
        }
      ],
      "stateMutability": "view",
      "type": "function"
    },
    {
      "inputs": [],
      "name": "renounceOwnership",
      "outputs": [],
      "stateMutability": "nonpayable",
      "type": "function"
    },
    {
      "inputs": [
        {
          "internalType": "uint256",
          "name": "invoiceId",
          "type": "uint256"
        }
      ],
      "name": "repay",
      "outputs": [],
      "stateMutability": "nonpayable",
      "type": "function"
    },
    {
      "inputs": [],
      "name": "reserveRatio",
      "outputs": [
        {
          "internalType": "uint256",
          "name": "",
          "type": "uint256"
        }
      ],
      "stateMutability": "view",
      "type": "function"
    },
    {
      "inputs": [
        {
          "internalType": "address",
          "name": "_borrowRegistry",
          "type": "address"
        }
      ],
      "name": "setBorrowRegistry",
      "outputs": [],
      "stateMutability": "nonpayable",
      "type": "function"
    },
    {
      "inputs": [
        {
          "internalType": "uint256",
          "name": "newPercent",
          "type": "uint256"
        }
      ],
      "name": "setMaxLoanPercent",
      "outputs": [],
      "stateMutability": "nonpayable",
      "type": "function"
    },
    {
      "inputs": [
        {
          "internalType": "uint256",
          "name": "newRatio",
          "type": "uint256"
        }
      ],
      "name": "setReserveRatio",
      "outputs": [],
      "stateMutability": "nonpayable",
      "type": "function"
    },
    {
      "inputs": [],
      "name": "stablecoin",
      "outputs": [
        {
          "internalType": "contract IERC20",
          "name": "",
          "type": "address"
        }
      ],
      "stateMutability": "view",
      "type": "function"
    },
    {
      "inputs": [],
      "name": "staking",
      "outputs": [
        {
          "internalType": "contract Staking",
          "name": "",
          "type": "address"
        }
      ],
      "stateMutability": "view",
      "type": "function"
    },
    {
      "inputs": [],
      "name": "totalBorrowed",
      "outputs": [
        {
          "internalType": "uint256",
          "name": "",
          "type": "uint256"
        }
      ],
      "stateMutability": "view",
      "type": "function"
    },
    {
      "inputs": [],
      "name": "totalDeposits",
      "outputs": [
        {
          "internalType": "uint256",
          "name": "",
          "type": "uint256"
        }
      ],
      "stateMutability": "view",
      "type": "function"
    },
    {
      "inputs": [],
      "name": "totalJuniorLiquidity",
      "outputs": [
        {
          "internalType": "uint256",
          "name": "",
          "type": "uint256"
        }
      ],
      "stateMutability": "view",
      "type": "function"
    },
    {
      "inputs": [],
      "name": "totalSeniorLiquidity",
      "outputs": [
        {
          "internalType": "uint256",
          "name": "",
          "type": "uint256"
        }
      ],
      "stateMutability": "view",
      "type": "function"
    },
    {
      "inputs": [
        {
          "internalType": "address",
          "name": "newOwner",
          "type": "address"
        }
      ],
      "name": "transferOwnership",
      "outputs": [],
      "stateMutability": "nonpayable",
      "type": "function"
    },
    {
      "inputs": [
        {
          "internalType": "address",
          "name": "",
          "type": "address"
        },
        {
          "internalType": "uint256",
          "name": "",
          "type": "uint256"
        }
      ],
      "name": "userActiveLoans",
      "outputs": [
        {
          "internalType": "bool",
          "name": "",
          "type": "bool"
        }
      ],
      "stateMutability": "view",
      "type": "function"
    },
    {
      "inputs": [
        {
          "internalType": "address",
          "name": "",
          "type": "address"
        },
        {
          "internalType": "uint256",
          "name": "",
          "type": "uint256"
        }
      ],
      "name": "userLoans",
      "outputs": [
        {
          "internalType": "uint256",
          "name": "",
          "type": "uint256"
        }
      ],
      "stateMutability": "view",
      "type": "function"
    },
    {
      "inputs": [
        {
          "internalType": "address",
          "name": "",
          "type": "address"
        }
      ],
      "name": "userTotalBorrowed",
      "outputs": [
        {
          "internalType": "uint256",
          "name": "",
          "type": "uint256"
        }
      ],
      "stateMutability": "view",
      "type": "function"
    },
    {
      "inputs": [
        {
          "internalType": "uint256",
          "name": "amount",
          "type": "uint256"
        },
        {
          "internalType": "enum LendingPool.Tranche",
          "name": "tranche",
          "type": "uint8"
        }
      ],
      "name": "withdrawByTranche",
      "outputs": [],
      "stateMutability": "nonpayable",
      "type": "function"
    },
    {
      "inputs": [
        {
          "internalType": "uint256",
          "name": "amount",
          "type": "uint256"
        }
      ],
      "name": "withdrawJunior",
      "outputs": [],
      "stateMutability": "nonpayable",
      "type": "function"
    },
    {
      "inputs": [],
      "name": "withdrawJuniorInterest",
      "outputs": [],
      "stateMutability": "nonpayable",
      "type": "function"
    },
    {
      "inputs": [],
      "name": "withdrawPlatformFees",
      "outputs": [],
      "stateMutability": "nonpayable",
      "type": "function"
    },
    {
      "inputs": [
        {
          "internalType": "uint256",
          "name": "amount",
          "type": "uint256"
        }
      ],
      "name": "withdrawSenior",
      "outputs": [],
      "stateMutability": "nonpayable",
      "type": "function"
    },
    {
      "inputs": [],
      "name": "withdrawSeniorInterest",
      "outputs": [],
      "stateMutability": "nonpayable",
      "type": "function"
    }
  ],
  "bytecode": "0x610120604052610fa06007556107d06008553480156200001e57600080fd5b5060405162005a5e38038062005a5e833981016040819052620000419162000115565b600160005533806200006d57604051631e4fbdf760e01b81526000600482015260240160405180910390fd5b6200007881620000a6565b506001600160a01b0393841660805291831660a052821660c0521660e0819052610100524260065562000172565b600180546001600160a01b038381166001600160a01b0319831681179093556040519116919082907f8be0079c531659141344cd1fd0a4f28419497f9722a3daafe3b4186f6b6457e090600090a35050565b80516001600160a01b03811681146200011057600080fd5b919050565b600080600080608085870312156200012c57600080fd5b6200013785620000f8565b93506200014760208601620000f8565b92506200015760408601620000f8565b91506200016760608601620000f8565b905092959194509250565b60805160a05160c05160e051610100516158306200022e600039600061052a0152600081816106d701528181611d91015281816125b901526137a501526000818161065601528181610f2601528181611075015281816112df0152818161216e015281816125060152613da2015260008181610abe01528181610db4015281816115d3015281816119060152818161200301528181612aa701528181613f88015281816146770152614711015260006107ac01526158306000f3fe608060405234801561001057600080fd5b506004361061041d5760003560e01c8063705635e41161022b578063b6b55f2511610130578063d8bad5bd116100b8578063e6e3bf5311610087578063e6e3bf5314610aa6578063e9cbd82214610ab9578063eb084ad014610ae0578063f034bf0914610b00578063f2fde38b14610b0957600080fd5b8063d8bad5bd146109aa578063e1ec3c68146109bd578063e1f1c4a714610a7a578063e3f3ee5014610a8357600080fd5b8063ca22c738116100ff578063ca22c7381461093e578063cb07bde914610951578063d0b7830b1461097a578063d353684414610982578063d3768450146109a257600080fd5b8063b6b55f2514610906578063b8e9c53314610919578063be0222dc1461092c578063c441cb681461093557600080fd5b80637f2c41ab116101b35780638f4d701f116101825780638f4d701f146108875780639144995d146108a757806399974c60146108ba5780639dd27538146108c3578063a151d430146108f157600080fd5b80637f2c41ab14610847578063875382e5146108505780638b4f3b2c146108635780638da5cb5b1461087657600080fd5b80637cad7e7c116101fa5780637cad7e7c146108125780637d297ff6146108255780637d8820971461082d5780637e3eac5f146108365780637eb711311461083f57600080fd5b8063705635e4146107ce578063715018a6146107ee578063740f66e1146107f657806374b521421461080957600080fd5b80633d0132e7116103315780634d9c4686116102b957806361a4d4ef1161028857806361a4d4ef1461075b578063640417271461076e5780636bce0172146107815780636bfbc309146107945780636f4670ae146107a757600080fd5b80634d9c4686146106f957806350f6165314610702578063587beabc146107225780635e1810c61461073557600080fd5b80634bb6f06d116103005780634bb6f06d146106515780634c19386c146106785780634c5df94c146106815780634ce10081146106bf5780634cf088d9146106d257600080fd5b80633d0132e7146105e657806341af32a61461060d57806341e05aae146106155780634607506a1461062857600080fd5b80631bae91a4116103b45780632a196afb116103835780632a196afb14610564578063341352bd146105a557806334a1e0d7146105b857806334fbc9a1146105cb578063371fd8e6146105d357600080fd5b80631bae91a4146104d65780631c274a80146104ff57806320b97962146105125780632458988b1461052557600080fd5b8063103d2ea4116103f0578063103d2ea41461047f57806315e7099514610492578063194a4e7e146104a557806319d7f5a3146104ae57600080fd5b806302bf321f1461042257806305e1bd8c1461044b5780630c7d5cd81461046c57806310293bd014610475575b600080fd5b610435610430366004615002565b610b1c565b6040516104429190615026565b60405180910390f35b61045e61045936600461506a565b610b88565b604051908152602001610442565b61045e60075481565b61047d610bf9565b005b61045e61048d3660046150aa565b610e1e565b61047d6104a03660046150df565b610ee4565b61045e60055481565b6104c16104bc366004615002565b611650565b60408051928352602083019190915201610442565b61045e6104e4366004615002565b6001600160a01b03166000908152600e602052604090205490565b61047d61050d366004615101565b611753565b61047d61052036600461511a565b6117db565b61054c7f000000000000000000000000000000000000000000000000000000000000000081565b6040516001600160a01b039091168152602001610442565b61057761057236600461514f565b611aeb565b604080519586526020860194909452911515928401929092529015156060830152608082015260a001610442565b61045e6105b336600461514f565b611bec565b61045e6105c6366004615002565b611d6d565b61045e60c881565b61047d6105e1366004615101565b611ed6565b6105f96105f436600461514f565b612255565b6040516104429897969594939291906151b3565b61045e603c81565b61047d610623366004615002565b61238d565b61045e610636366004615002565b6001600160a01b03166000908152600d602052604090205490565b61054c7f000000000000000000000000000000000000000000000000000000000000000081565b61045e60045481565b6106af61068f366004615297565b8051602081830181018051600b8252928201919093012091525460ff1681565b6040519015158152602001610442565b61045e6106cd366004615002565b6123b7565b61054c7f000000000000000000000000000000000000000000000000000000000000000081565b61045e6103e881565b61045e610710366004615002565b600f6020526000908152604090205481565b60025461054c906001600160a01b031681565b61074861074336600461514f565b612483565b6040516104429796959493929190615317565b61045e610769366004615101565b6124e3565b61045e61077c3660046150aa565b612666565b61047d61078f366004615101565b612801565b61045e6107a2366004615002565b612b11565b61054c7f000000000000000000000000000000000000000000000000000000000000000081565b61045e6107dc366004615002565b60106020526000908152604090205481565b61047d612c4d565b61045e6108043660046150aa565b612c5f565b61045e60065481565b61054c610820366004615101565b612d5a565b61047d612d84565b61045e60035481565b61045e6104b081565b61045e612f2d565b61045e60115481565b61047d61085e366004615101565b612f61565b61047d610871366004615101565b6131f0565b6001546001600160a01b031661054c565b61089a610895366004615002565b61326f565b6040516104429190615359565b61047d6108b53660046153e5565b61349f565b61045e6102bc81565b6106af6108d136600461514f565b600c60209081526000928352604080842090915290825290205460ff1681565b6108f9613ec1565b6040516104429190615461565b61047d610914366004615101565b613f23565b610435610927366004615002565b614109565b61045e60125481565b61045e60085481565b61047d61094c3660046154a2565b6142ec565b61045e61095f366004615002565b6001600160a01b03166000908152600f602052604090205490565b61047d6146e1565b61045e610990366004615002565b60156020526000908152604090205481565b61045e614738565b61045e6109b836600461514f565b6147fd565b610a276109cb366004615101565b60096020526000908152604090208054600182015460028301546003840154600485015460058601546006870154600788015460089098015496979596949560ff8086169661010090960416946001600160a01b03909216918a565b604080519a8b5260208b0199909952978901969096529315156060880152911515608087015260a086015260c08501526001600160a01b031660e084015261010083015261012082015261014001610442565b61045e61271081565b6106af610a91366004615002565b60146020526000908152604090205460ff1681565b61089a610ab4366004615002565b61482e565b61054c7f000000000000000000000000000000000000000000000000000000000000000081565b61045e610aee366004615002565b600d6020526000908152604090205481565b61045e61032081565b61047d610b17366004615002565b614918565b6001600160a01b0381166000908152600a6020908152604091829020805483518184028101840190945280845260609392830182828015610b7c57602002820191906000526020600020905b815481526020019060010190808311610b68575b50505050509050919050565b600080610b9584426154db565b905060006301e13380610bb083670de0b6b3a76400006154ee565b610bba9190615505565b9050610bd0612710670de0b6b3a76400006154ee565b81610bdb86896154ee565b610be591906154ee565b610bef9190615505565b9695505050505050565b610c01614953565b336000908152600e6020526040812090805b8254811015610d2c576000838281548110610c3057610c30615527565b6000918252602082206007909102019150600582015460ff166001811115610c5a57610c5a61517b565b14610c655750610d1a565b60038101548154600091610c78916154db565b905080600003610c89575050610d1a565b6000826002015442610c9b91906154db565b905060006301e13380610cb683670de0b6b3a76400006154ee565b610cc09190615505565b90506000610cd8612710670de0b6b3a76400006154ee565b82610ce56104b0876154ee565b610cef91906154ee565b610cf99190615505565b90508015610d1457426002860155610d11818861553d565b96505b50505050505b80610d2481615550565b915050610c13565b5060008111610d825760405162461bcd60e51b815260206004820152601e60248201527f4e6f204a756e696f7220696e74657265737420746f207769746864726177000060448201526064015b60405180910390fd5b3360009081526010602052604081208054839290610da190849061553d565b90915550610ddb90506001600160a01b037f000000000000000000000000000000000000000000000000000000000000000016338361497d565b60405181815233907feab2c64fe6274878371122aa1c2f1fd513478898c6a8a3a166f68a9ef6866de99060200160405180910390a25050610e1c6001600055565b565b6001600160a01b0382166000908152600e602052604081208190815b8154811015610ed857846001811115610e5557610e5561517b565b828281548110610e6757610e67615527565b600091825260209091206005600790920201015460ff166001811115610e8f57610e8f61517b565b03610ec657818181548110610ea657610ea6615527565b90600052602060002090600702016000015483610ec3919061553d565b92505b80610ed081615550565b915050610e3a565b50909150505b92915050565b610eec614953565b80600003610f0d5760405163162908e360e11b815260040160405180910390fd5b6040516331a9108f60e11b8152600481018390526000907f00000000000000000000000000000000000000000000000000000000000000006001600160a01b031690636352211e90602401602060405180830381865afa158015610f75573d6000803e3d6000fd5b505050506040513d601f19601f82011682018060405250810190610f999190615574565b9050806001600160a01b03167f42c5c5392f1cc52a311cb73e5bdb7a6ecca0ce9b627fe4d65630e5f170d3a251604051610ff79060208082526010908201526f537570706c696572206164647265737360801b604082015260600190565b60405180910390a2600061100a82611d6d565b90506000805160206157db8339815191528160405161105491906040808252600e908201526d21b0b631bab630ba32b210262a2b60911b6060820152602081019190915260800190565b60405180910390a160405163484d384560e11b8152600481018590526000907f00000000000000000000000000000000000000000000000000000000000000006001600160a01b03169063909a708a90602401600060405180830381865afa1580156110c4573d6000803e3d6000fd5b505050506040513d6000823e601f3d908101601f191682016040526110ec9190810190615606565b90506000805160206157db83398151915281606001516040516111419190604080825260159082015274125b9d9bda58d94818dc99591a5d08185b5bdd5b9d605a1b6060820152602081019190915260800190565b60405180910390a16000611159848360600151611bec565b90506000805160206157db833981519152816040516111ab919060408082526016908201527513585e081cd8599948189bdc9c9bddc8185b5bdd5b9d60521b6060820152602081019190915260800190565b60405180910390a1604080518181526017818301527f52657175657374656420626f72726f7720616d6f756e7400000000000000000060608201526020810187905290516000805160206157db8339815191529181900360800190a18085111561122857604051630e25379960e21b815260040160405180910390fd5b4282608001511161124c57604051630f04e9cf60e41b815260040160405180910390fd5b6001600160a01b0384166000908152600c6020908152604080832089845290915290205460ff16156112915760405163b9000c3b60e01b815260040160405180910390fd5b8160c001516112b357604051635c6754a560e11b815260040160405180910390fd5b6040516323b872dd60e01b81526001600160a01b038581166004830152306024830152604482018890527f000000000000000000000000000000000000000000000000000000000000000016906323b872dd90606401600060405180830381600087803b15801561132357600080fd5b505af1158015611337573d6000803e3d6000fd5b505050506040518061014001604052808781526020018681526020018360800151815260200160001515815260200160001515815260200160008152602001428152602001856001600160a01b03168152602001868152602001428152506009600088815260200190815260200160002060008201518160000155602082015181600101556040820151816002015560608201518160030160006101000a81548160ff02191690831515021790555060808201518160030160016101000a81548160ff02191690831515021790555060a0820151816004015560c0820151816005015560e08201518160060160006101000a8154816001600160a01b0302191690836001600160a01b0316021790555061010082015181600701556101208201518160080155905050600a6000856001600160a01b03166001600160a01b031681526020019081526020016000208690806001815401808255809150506001900390600052602060002001600090919091909150556001600c6000866001600160a01b03166001600160a01b03168152602001908152602001600020600088815260200190815260200160002060006101000a81548160ff02191690831515021790555084600d6000866001600160a01b03166001600160a01b031681526020019081526020016000206000828254611530919061553d565b925050819055508460046000828254611549919061553d565b90915550506002546001600160a01b0316156115c65760025460405163baae45e160e01b81526001600160a01b038681166004830152602482018990529091169063baae45e190604401600060405180830381600087803b1580156115ad57600080fd5b505af11580156115c1573d6000803e3d6000fd5b505050505b6115fa6001600160a01b037f000000000000000000000000000000000000000000000000000000000000000016858761497d565b836001600160a01b0316867f8910ba13a55695f056e224bbbc6b65d866b12a8c2fbdf387fb853a1cca298cd78760405161163691815260200190565b60405180910390a35050505061164c6001600055565b5050565b6001600160a01b0381166000908152600e602052604081208190815b815481101561174c57600082828154811061168957611689615527565b9060005260206000209060070201600301548383815481106116ad576116ad615527565b9060005260206000209060070201600001546116c991906154db565b9050806000036116d9575061173a565b60008383815481106116ed576116ed615527565b600091825260209091206005600790920201015460ff1660018111156117155761171561517b565b0361172b57611724818661553d565b9450611738565b611735818561553d565b93505b505b8061174481615550565b91505061166c565b5050915091565b61175b6149dc565b61271081111561179f5760405162461bcd60e51b815260206004820152600f60248201526e125b9d985b1a59081c195c98d95b9d608a1b6044820152606401610d79565b60088190556040518181527f69fc31751663539b7c0037dc7cc5dd7437838c42e35546b96e0030671c533632906020015b60405180910390a150565b6117e3614953565b600083116118335760405162461bcd60e51b815260206004820152601d60248201527f416d6f756e74206d7573742062652067726561746572207468616e20300000006044820152606401610d79565b60018260018111156118475761184761517b565b036118a1576000811161189c5760405162461bcd60e51b815260206004820152601e60248201527f53656e696f72207472616e636865207265717569726573206c6f636b757000006044820152606401610d79565b6118f9565b80156118f95760405162461bcd60e51b815260206004820152602160248201527f4a756e696f72207472616e6368652063616e6e6f742068617665206c6f636b756044820152600760fc1b6064820152608401610d79565b61192e6001600160a01b037f000000000000000000000000000000000000000000000000000000000000000016333086614a09565b336000908152600e602090815260408083208054825160e081018452888152429481018590529283019390935260608201939093526080810182905290919060a081018560018111156119835761198361517b565b815260209081018590528254600181810185556000948552938290208351600790920201908155908201518184015560408201516002820155606082015160038201556080820151600482015560a0820151600582018054939492939192909160ff19169083818111156119f9576119f961517b565b021790555060c09190910151600690910155336000908152600f602052604081208054869290611a2a90849061553d565b925050819055508360036000828254611a43919061553d565b9091555060009050836001811115611a5d57611a5d61517b565b03611a7f578360116000828254611a74919061553d565b90915550611a979050565b8360126000828254611a91919061553d565b90915550505b611aa033614a48565b604080518581526020810183905233917f90890809c654f11d6e72a28fa60149770a0d11ec6c92319d6ceb2bb0a4ea1a15910160405180910390a250611ae66001600055565b505050565b6001600160a01b0382166000908152600c60209081526040808320848452909152812054819081908190819060ff16611b665760405162461bcd60e51b815260206004820152601c60248201527f4c6f616e206e6f7420666f756e64206f72206e6f7420616374697665000000006044820152606401610d79565b60008681526009602052604090206004810154600382015460ff16158015611b9857506003820154610100900460ff16155b15611bbf57611bb2826001015483600501546103e8610b88565b611bbc908261553d565b90505b60018201546002830154600390930154909a92995060ff8082169950610100909104169650945092505050565b600080612710611bfb85611d6d565b611c0590856154ee565b611c0f9190615505565b90506000600454600354611c2391906154db565b90506000611c2f612f2d565b90506000611f408211611c4457600754611c48565b6117705b9050600061271082600354611c5d91906154ee565b611c679190615505565b90506000818511611c79576000611c83565b611c8382866154db565b90506000612710600854600354611c9a91906154ee565b611ca49190615505565b90508682811115611cb25750815b81811115611cbd5750805b612328861115611d0f5760405162461bcd60e51b815260206004820152601d60248201527f50726f746f636f6c207574696c697a6174696f6e20746f6f20686967680000006044820152606401610d79565b60008111611d5f5760405162461bcd60e51b815260206004820152601860248201527f4e6f2073616665206c656e64696e6720636170616369747900000000000000006044820152606401610d79565b9a9950505050505050505050565b6040516301088ce960e41b81526001600160a01b03828116600483015260009182917f00000000000000000000000000000000000000000000000000000000000000001690631088ce9090602401602060405180830381865afa158015611dd8573d6000803e3d6000fd5b505050506040513d601f19601f82011682018060405250810190611dfc91906156de565b905060006127108210611e125750611d4c611e4d565b6113888210611e245750611770611e4d565b6109c48210611e365750611388611e4d565b6103e88210611e485750610fa0611e4d565b50610bb85b6000611e5885614b03565b9050816000821315611e7557611e6e828261553d565b9050611eab565b6000821215611eab576000611e89836156f7565b905080821115611ea457611e9d81836154db565b9150611ea9565b600091505b505b611d4c811115611ebe5750611d4c611ecd565b610bb8811015611ecd5750610bb85b95945050505050565b611ede614953565b6000818152600960205260409020600381015460ff16158015611f0b57506003810154610100900460ff16155b611f4e5760405162461bcd60e51b8152602060048201526014602482015273131bd85b88185b1c9958591e481cd95d1d1b195960621b6044820152606401610d79565b600281015460068201544291909111906001600160a01b03163314611fa65760405162461bcd60e51b815260206004820152600e60248201526d2737ba103637b0b71037bbb732b960911b6044820152606401610d79565b6000611fbd836001015484600501546103e8610b88565b905080836004016000828254611fd3919061553d565b909155505042600584015560048301546001840154600091611ff49161553d565b905061202b6001600160a01b037f000000000000000000000000000000000000000000000000000000000000000016333084614a09565b60006103e860c8866004015461204191906154ee565b61204b9190615505565b9050806005600082825461205f919061553d565b9091555050600385018054600160ff199182168117909255336000818152600c602090815260408083208c84528252808320805490951690945593890154918152600d9093529082208054919290916120b99084906154db565b90915550506001850154600480546000906120d59084906154db565b90915550506002546001600160a01b0316156121585760025460405163624789c960e11b81523360048201526024810188905285151560448201526001600160a01b039091169063c48f139290606401600060405180830381600087803b15801561213f57600080fd5b505af1158015612153573d6000803e3d6000fd5b505050505b604051630852cd8d60e31b8152600481018790527f00000000000000000000000000000000000000000000000000000000000000006001600160a01b0316906342966c6890602401600060405180830381600087803b1580156121ba57600080fd5b505af11580156121ce573d6000803e3d6000fd5b5050505060068501546040518381526001600160a01b039091169087907f512d3e65b3e58c2187bb1872aa435dba5bd09c1c03823ba56ab70aac411e4a219060200160405180910390a360405186907fd20dd6615233f6ea374fecbfd548d1c1666cf4b91a97fd0a457a43b03ae37cad90600090a250505050506122526001600055565b50565b6001600160a01b0382166000908152600e6020526040812054819081908190819081908190819089106122c25760405162461bcd60e51b8152602060048201526015602482015274092dcecc2d8d2c840c8cae0dee6d2e840d2dcc8caf605b1b6044820152606401610d79565b6001600160a01b038a166000908152600e6020526040812080548b9081106122ec576122ec615527565b9060005260206000209060070201905080600001549850806001015497508060020154965080600301549550806004015494508060050160009054906101000a900460ff1693508060060154925060018081111561234c5761234c61517b565b84600181111561235e5761235e61517b565b14801561237d57508060060154816001015461237a919061553d565b42105b9150509295985092959890939650565b6123956149dc565b600280546001600160a01b0319166001600160a01b0392909216919091179055565b6001600160a01b0381166000908152600e602052604081208190815b815481101561247a5760008282815481106123f0576123f0615527565b6000918252602090912060079091020190506001600582015460ff16600181111561241d5761241d61517b565b036124675760038101548154600091612435916154db565b905080156124655781600601548260010154612451919061553d565b42101561246557612462818661553d565b94505b505b508061247281615550565b9150506123d3565b50909392505050565b600e602052816000526040600020818154811061249f57600080fd5b600091825260209091206007909102018054600182015460028301546003840154600485015460058601546006909601549497509295509093909260ff9091169087565b60405163484d384560e11b81526004810182905260009081906001600160a01b037f0000000000000000000000000000000000000000000000000000000000000000169063909a708a90602401600060405180830381865afa15801561254d573d6000803e3d6000fd5b505050506040513d6000823e601f3d908101601f191682016040526125759190810190615606565b905060006064603c836060015161258c91906154ee565b6125969190615505565b604051635a2d572960e11b81523360048201529091506000906001600160a01b037f0000000000000000000000000000000000000000000000000000000000000000169063b45aae5290602401602060405180830381865afa158015612600573d6000803e3d6000fd5b505050506040513d601f19601f820116820180604052508101906126249190615713565b60ff169050801561265e57606461263c82600a6154ee565b61264790606461553d565b61265190846154ee565b61265b9190615505565b91505b509392505050565b6001600160a01b0382166000908152600e602052604081208190815b8154811015610ed857600082828154811061269f5761269f615527565b906000526020600020906007020190508560018111156126c1576126c161517b565b600582015460ff1660018111156126da576126da61517b565b146126e557506127ef565b600381015481546000916126f8916154db565b9050806000036127095750506127ef565b600187600181111561271d5761271d61517b565b036127445781600601548260010154612736919061553d565b4210156127445750506127ef565b600082600201544261275691906154db565b905060006301e1338061277183670de0b6b3a76400006154ee565b61277b9190615505565b90506000808a60018111156127925761279261517b565b1461279f576102bc6127a3565b6104b05b905060006127bb612710670de0b6b3a76400006154ee565b836127c684886154ee565b6127d091906154ee565b6127da9190615505565b90506127e6818a61553d565b98505050505050505b806127f981615550565b915050612682565b612809614953565b8060000361282a5760405163162908e360e11b815260040160405180910390fd5b600060045460035461283c91906154db565b90508181101561285f5760405163bb55fd2760e01b815260040160405180910390fd5b336000908152600e60205260408120815b81548110156128f957600082828154811061288d5761288d615527565b6000918252602082206007909102019150600582015460ff1660018111156128b7576128b761517b565b036128e657600381015481546000916128cf916154db565b905080156128e4576128e1818661553d565b94505b505b50806128f181615550565b915050612870565b50838210156129595760405162461bcd60e51b815260206004820152602660248201527f496e73756666696369656e742062616c616e636520696e204a756e696f72207460448201526572616e63686560d01b6064820152608401610d79565b8360005b82548110801561296d5750600082115b15612a4557600083828154811061298657612986615527565b6000918252602082206007909102019150600582015460ff1660018111156129b0576129b061517b565b146129bb5750612a33565b600381015481546000916129ce916154db565b9050806000036129df575050612a33565b60008482106129ee57846129f0565b815b905080836003016000828254612a06919061553d565b90915550612a16905081866154db565b94508060116000828254612a2a91906154db565b90915550505050505b80612a3d81615550565b91505061295d565b50336000908152600f602052604081208054879290612a659084906154db565b925050819055508460036000828254612a7e91906154db565b90915550612a8d905033614ce5565b612a9a57612a9a33614d7c565b612ace6001600160a01b037f000000000000000000000000000000000000000000000000000000000000000016338761497d565b60405185815233907f884edad9ce6fa2440d8a54cc123490eb96d2768479d49ff9c7366125a94243649060200160405180910390a2505050506122526001600055565b6001600160a01b0381166000908152600e6020526040812081805b825481101561265e576000838281548110612b4957612b49615527565b906000526020600020906007020160030154848381548110612b6d57612b6d615527565b906000526020600020906007020160000154612b8991906154db565b905080600003612b995750612c3b565b6000848381548110612bad57612bad615527565b90600052602060002090600702016002015442612bca91906154db565b905060006301e13380612be583670de0b6b3a76400006154ee565b612bef9190615505565b90506000612c07612710670de0b6b3a76400006154ee565b82612c14610320876154ee565b612c1e91906154ee565b612c289190615505565b9050612c34818761553d565b9550505050505b80612c4581615550565b915050612b2c565b612c556149dc565b610e1c6000614edc565b6001600160a01b0382166000908152600e602052604081208190815b8154811015610ed8576000828281548110612c9857612c98615527565b90600052602060002090600702019050856001811115612cba57612cba61517b565b600582015460ff166001811115612cd357612cd361517b565b03612d475760038101548154600091612ceb916154db565b90508015612d45576001876001811115612d0757612d0761517b565b03612d385781600601548260010154612d20919061553d565b4210612d3357612d30818661553d565b94505b612d45565b612d42818661553d565b94505b505b5080612d5281615550565b915050612c7b565b60138181548110612d6a57600080fd5b6000918252602090912001546001600160a01b0316905081565b612d8c614953565b336000908152600e6020526040812090805b8254811015612edc576000838281548110612dbb57612dbb615527565b6000918252602090912060079091020190506001600582015460ff166001811115612de857612de861517b565b14612df35750612eca565b60038101548154600091612e06916154db565b905080600003612e17575050612eca565b81600601548260010154612e2b919061553d565b421015612e39575050612eca565b6000826002015442612e4b91906154db565b905060006301e13380612e6683670de0b6b3a76400006154ee565b612e709190615505565b90506000612e88612710670de0b6b3a76400006154ee565b82612e956102bc876154ee565b612e9f91906154ee565b612ea99190615505565b90508015612ec457426002860155612ec1818861553d565b96505b50505050505b80612ed481615550565b915050612d9e565b5060008111610d825760405162461bcd60e51b815260206004820152601e60248201527f4e6f2053656e696f7220696e74657265737420746f20776974686472617700006044820152606401610d79565b6000600354600003612f3f5750600090565b600354612710600454612f5291906154ee565b612f5c9190615505565b905090565b612f69614953565b80600003612f8a5760405163162908e360e11b815260040160405180910390fd5b6000600454600354612f9c91906154db565b905081811015612fbf5760405163bb55fd2760e01b815260040160405180910390fd5b336000908152600e60205260408120815b8154811015613076576000828281548110612fed57612fed615527565b6000918252602090912060079091020190506001600582015460ff16600181111561301a5761301a61517b565b036130635760038101548154600091613032916154db565b90508015613061578160060154826001015461304e919061553d565b42106130615761305e818661553d565b94505b505b508061306e81615550565b915050612fd0565b50838210156130df5760405162461bcd60e51b815260206004820152602f60248201527f496e73756666696369656e7420756e6c6f636b65642062616c616e636520696e60448201526e2053656e696f72207472616e63686560881b6064820152608401610d79565b8360005b8254811080156130f35750600082115b15612a4557600083828154811061310c5761310c615527565b6000918252602090912060079091020190506001600582015460ff1660018111156131395761313961517b565b1461314457506131de565b60038101548154600091613157916154db565b9050806000036131685750506131de565b8160060154826001015461317c919061553d565b42101561318a5750506131de565b6000848210613199578461319b565b815b9050808360030160008282546131b1919061553d565b909155506131c1905081866154db565b945080601260008282546131d591906154db565b90915550505050505b806131e881615550565b9150506130e3565b6131f86149dc565b61271081111561323a5760405162461bcd60e51b815260206004820152600d60248201526c496e76616c696420726174696f60981b6044820152606401610d79565b60078190556040518181527f5fc97baab2060bb73299f20ec1d188d8ad3e090e1d7e029e716c34674d87b234906020016117d0565b6001600160a01b0381166000908152600e60205260408120606091805b8254811015613303578281815481106132a7576132a7615527565b9060005260206000209060070201600301548382815481106132cb576132cb615527565b90600052602060002090600702016000015411156132f157816132ed81615550565b9250505b806132fb81615550565b91505061328c565b5060008167ffffffffffffffff81111561331f5761331f6151ff565b60405190808252806020026020018201604052801561335857816020015b613345614f9f565b81526020019060019003908161333d5790505b5090506000805b84548110156134945784818154811061337a5761337a615527565b90600052602060002090600702016003015485828154811061339e5761339e615527565b9060005260206000209060070201600001541115613482578481815481106133c8576133c8615527565b90600052602060002090600702016040518060e001604052908160008201548152602001600182015481526020016002820154815260200160038201548152602001600482015481526020016005820160009054906101000a900460ff1660018111156134375761343761517b565b60018111156134485761344861517b565b815260200160068201548152505083838151811061346857613468615527565b6020026020010181905250818061347e90615550565b9250505b8061348c81615550565b91505061335f565b509095945050505050565b6134a7614953565b6000838152600960205260409020600381015460ff161580156134d457506003810154610100900460ff16155b6135175760405162461bcd60e51b8152602060048201526014602482015273131bd85b88185b1c9958591e481cd95d1d1b195960621b6044820152606401610d79565b8060020154421161355d5760405162461bcd60e51b815260206004820152601060248201526f4c6f616e206e6f74206f76657264756560801b6044820152606401610d79565b6000613574826001015483600501546103e8610b88565b90508082600401600082825461358a919061553d565b909155505042600583015560018201546000906135a890839061553d565b905060006103e860c885600401546135c091906154ee565b6135ca9190615505565b905080600560008282546135de919061553d565b909155505060038401805461ff0019166101001790556006840180546001600160a01b039081166000908152600c602090815260408083208c84528252808320805460ff19169055600189015494549093168252600d905290812080549091906136499084906154db565b90915550506001840154600480546000906136659084906154db565b90915550506002546001600160a01b0316156136e65760025460068501546040516366a2a27960e11b81526001600160a01b039182166004820152602481018a905291169063cd4544f290604401600060405180830381600087803b1580156136cd57600080fd5b505af11580156136e1573d6000803e3d6000fd5b505050505b6001600b87876040516136fa929190615736565b908152604051908190036020018120805492151560ff199093169290921790915560068501546001600160a01b0316907f42c5c5392f1cc52a311cb73e5bdb7a6ecca0ce9b627fe4d65630e5f170d3a25190613779906020808252600f908201526e4265666f726520736c617368696e6760881b604082015260600190565b60405180910390a2600684015460405163ca5bbe4360e01b81526001600160a01b0391821660048201527f00000000000000000000000000000000000000000000000000000000000000009091169063ca5bbe4390602401600060405180830381600087803b1580156137eb57600080fd5b505af11580156137ff573d6000803e3d6000fd5b50505060068501546040516001600160a01b0390911691507f42c5c5392f1cc52a311cb73e5bdb7a6ecca0ce9b627fe4d65630e5f170d3a25190613865906020808252600e908201526d416674657220736c617368696e6760901b604082015260600190565b60405180910390a2601154829060009082116138815781613885565b6011545b9050600060115483116138995760006138a6565b6011546138a690846154db565b90508115613acc576000805b601354811015613991576000601382815481106138d1576138d1615527565b60009182526020808320909101546001600160a01b0316808352600e90915260408220909250905b815481101561397b57600082828154811061391657613916615527565b6000918252602082206007909102019150600582015460ff1660018111156139405761394061517b565b036139685760038101548154600091613958916154db565b9050613964818861553d565b9650505b508061397381615550565b9150506138f9565b505050808061398990615550565b9150506138b2565b508015613ab35760005b601354811015613ab1576000601382815481106139ba576139ba615527565b60009182526020808320909101546001600160a01b0316808352600e90915260408220909250905b8154811015613a9b5760008282815481106139ff576139ff615527565b6000918252602082206007909102019150600582015460ff166001811115613a2957613a2961517b565b03613a875760038101548154600091613a41916154db565b905080600003613a52575050613a89565b600087613a5f8b846154ee565b613a699190615505565b905080836000016000828254613a7f91906154db565b909155505050505b505b80613a9381615550565b9150506139e2565b5050508080613aa990615550565b91505061399b565b505b8260116000828254613ac591906154db565b9091555050505b8015613cf6576000805b601354811015613bb857600060138281548110613af557613af5615527565b60009182526020808320909101546001600160a01b0316808352600e90915260408220909250905b8154811015613ba2576000828281548110613b3a57613b3a615527565b6000918252602090912060079091020190506001600582015460ff166001811115613b6757613b6761517b565b03613b8f5760038101548154600091613b7f916154db565b9050613b8b818861553d565b9650505b5080613b9a81615550565b915050613b1d565b5050508080613bb090615550565b915050613ad6565b508015613cdd5760005b601354811015613cdb57600060138281548110613be157613be1615527565b60009182526020808320909101546001600160a01b0316808352600e90915260408220909250905b8154811015613cc5576000828281548110613c2657613c26615527565b6000918252602090912060079091020190506001600582015460ff166001811115613c5357613c5361517b565b03613cb15760038101548154600091613c6b916154db565b905080600003613c7c575050613cb3565b600087613c898a846154ee565b613c939190615505565b905080836000016000828254613ca991906154db565b909155505050505b505b80613cbd81615550565b915050613c09565b5050508080613cd390615550565b915050613bc2565b505b8160126000828254613cef91906154db565b9091555050505b6040805181815260148183015273129d5b9a5bdc881b1bdcdcc818589cdbdc98995960621b60608201526020810184905290516000805160206157db8339815191529181900360800190a1604080518181526014818301527314d95b9a5bdc881b1bdcdcc818589cdbdc98995960621b60608201526020810183905290516000805160206157db8339815191529181900360800190a1604051630852cd8d60e31b8152600481018b90527f00000000000000000000000000000000000000000000000000000000000000006001600160a01b0316906342966c6890602401600060405180830381600087803b158015613dee57600080fd5b505af1158015613e02573d6000803e3d6000fd5b5050505060068701546040518681526001600160a01b03909116908b907f0256bdf47e9aff5784070d6cab332d79f81fc6b8c8ed875565982a423a389e3a9060200160405180910390a37fa76a82661b19a40942574f6cc378f486fb7b533e455d9a43dc276f2b0b2639fc8989604051613e7d929190615746565b60405180910390a16040518a907fd20dd6615233f6ea374fecbfd548d1c1666cf4b91a97fd0a457a43b03ae37cad90600090a250505050505050611ae66001600055565b60606013805480602002602001604051908101604052809291908181526020018280548015613f1957602002820191906000526020600020905b81546001600160a01b03168152600190910190602001808311613efb575b5050505050905090565b613f2b614953565b60008111613f7b5760405162461bcd60e51b815260206004820152601d60248201527f416d6f756e74206d7573742062652067726561746572207468616e20300000006044820152606401610d79565b613fb06001600160a01b037f000000000000000000000000000000000000000000000000000000000000000016333084614a09565b336000908152600e602090815260408083208054825160e08101845286815242818601818152948201908152606082018781526080830184815260a0840189815260c085018a905260018087018855968a5297909820835160078602909101908155955186860155905160028601555160038501559451600484015592516005830180549495949192909160ff19169083818111156140515761405161517b565b021790555060c09190910151600690910155336000908152600f60205260408120805484929061408290849061553d565b92505081905550816003600082825461409b919061553d565b9250508190555081601160008282546140b4919061553d565b909155506140c3905033614a48565b604080518381526020810183905233917f90890809c654f11d6e72a28fa60149770a0d11ec6c92319d6ceb2bb0a4ea1a15910160405180910390a2506122526001600055565b6001600160a01b0381166000908152600a6020908152604080832080548251818502810185019093528083526060949383018282801561416857602002820191906000526020600020905b815481526020019060010190808311614154575b505050505090506000805b82518110156141ee576001600160a01b0385166000908152600c6020526040812084519091908590849081106141ab576141ab615527565b60209081029190910181015182528101919091526040016000205460ff16156141dc57816141d881615550565b9250505b806141e681615550565b915050614173565b5060008167ffffffffffffffff81111561420a5761420a6151ff565b604051908082528060200260200182016040528015614233578160200160208202803683370190505b5090506000805b8451811015613494576001600160a01b0387166000908152600c60205260408120865190919087908490811061427257614272615527565b60209081029190910181015182528101919091526040016000205460ff16156142da578481815181106142a7576142a7615527565b60200260200101518383815181106142c1576142c1615527565b6020908102919091010152816142d681615550565b9250505b806142e481615550565b91505061423a565b6142f4614953565b816000036143155760405163162908e360e11b815260040160405180910390fd5b600060045460035461432791906154db565b90508281101561434a5760405163bb55fd2760e01b815260040160405180910390fd5b336000908152600e60205260408120815b815481101561443a57600082828154811061437857614378615527565b9060005260206000209060070201905085600181111561439a5761439a61517b565b600582015460ff1660018111156143b3576143b361517b565b0361442757600381015481546000916143cb916154db565b905080156144255760018760018111156143e7576143e761517b565b036144185781600601548260010154614400919061553d565b421061441357614410818661553d565b94505b614425565b614422818661553d565b94505b505b508061443281615550565b91505061435b565b50848210156144a65760405162461bcd60e51b815260206004820152603260248201527f496e73756666696369656e7420756e6c6f636b65642062616c616e636520696e60448201527120737065636966696564207472616e63686560701b6064820152608401610d79565b8460005b8254811080156144ba5750600082115b156146155760008382815481106144d3576144d3615527565b906000526020600020906007020190508660018111156144f5576144f561517b565b600582015460ff16600181111561450e5761450e61517b565b146145195750614603565b6003810154815460009161452c916154db565b90508060000361453d575050614603565b60018860018111156145515761455161517b565b03614578578160060154826001015461456a919061553d565b421015614578575050614603565b60008482106145875784614589565b815b90508083600301600082825461459f919061553d565b909155506145af905081866154db565b945060008960018111156145c5576145c561517b565b036145e75780601160008282546145dc91906154db565b909155506145ff9050565b80601260008282546145f991906154db565b90915550505b5050505b8061460d81615550565b9150506144aa565b50336000908152600f6020526040812080548892906146359084906154db565b92505081905550856003600082825461464e91906154db565b9091555061465d905033614ce5565b61466a5761466a33614d7c565b61469e6001600160a01b037f000000000000000000000000000000000000000000000000000000000000000016338861497d565b60405186815233907f884edad9ce6fa2440d8a54cc123490eb96d2768479d49ff9c7366125a94243649060200160405180910390a25050505061164c6001600055565b6146e96149dc565b6005805460009091556122526147076001546001600160a01b031690565b6001600160a01b037f000000000000000000000000000000000000000000000000000000000000000016908361497d565b60008060045460035461474b91906154db565b90506000614757612f2d565b90506000611f40821161476c57600754614770565b6117705b905060006127108260035461478591906154ee565b61478f9190615505565b905060008185116147a15760006147ab565b6147ab82866154db565b905060006127106008546003546147c291906154ee565b6147cc9190615505565b905081818111156147da5750805b6123288611156147f257600097505050505050505090565b979650505050505050565b600a602052816000526040600020818154811061481957600080fd5b90600052602060002001600091509150505481565b6001600160a01b0381166000908152600e60209081526040808320805482518185028101850190935280835260609492939192909184015b8282101561490d57838290600052602060002090600702016040518060e001604052908160008201548152602001600182015481526020016002820154815260200160038201548152602001600482015481526020016005820160009054906101000a900460ff1660018111156148df576148df61517b565b60018111156148f0576148f061517b565b815260200160068201548152505081526020019060010190614866565b505050509050919050565b6149206149dc565b6001600160a01b03811661494a57604051631e4fbdf760e01b815260006004820152602401610d79565b61225281614edc565b60026000540361497657604051633ee5aeb560e01b815260040160405180910390fd5b6002600055565b6040516001600160a01b03838116602483015260448201839052611ae691859182169063a9059cbb906064015b604051602081830303815290604052915060e01b6020820180516001600160e01b038381831617835250505050614f2e565b6001546001600160a01b03163314610e1c5760405163118cdaa760e01b8152336004820152602401610d79565b6040516001600160a01b038481166024830152838116604483015260648201839052614a429186918216906323b872dd906084016149aa565b50505050565b6001600160a01b03811660009081526014602052604090205460ff1661225257601380546001600160a01b038316600081815260156020908152604080832085905560018086019096557f66de8ffda797e3de9c05e8fc57b3bf0ec28a930d40b0d285d93c06501cf6a09090940180546001600160a01b0319168417905560149052828120805460ff1916909417909355905190917f87031a7b98c903564e5496bc1ab5a7486ae259f572034a10f8a75839db7ec46691a250565b6002546000906001600160a01b0316614b1e57506000919050565b600254604051630551d9f360e51b81526001600160a01b038481166004830152600092169063aa3b3e6090602401602060405180830381865afa158015614b69573d6000803e3d6000fd5b505050506040513d601f19601f82011682018060405250810190614b8d91906156de565b600254604051632937238960e01b81526001600160a01b03868116600483015292935060009290911690632937238990602401602060405180830381865afa158015614bdd573d6000803e3d6000fd5b505050506040513d601f19601f82011682018060405250810190614c0191906156de565b60025460405163272b6e7560e11b81526001600160a01b03878116600483015292935060009290911690634e56dcea90602401602060405180830381865afa158015614c51573d6000803e3d6000fd5b505050506040513d601f19601f82011682018060405250810190614c7591906156de565b9050600083600003614c9457614c8d6103e882615775565b9050614cab565b60028410614cab57614ca86105dc8261579d565b90505b60018310158015614cbd575060028311155b15614cd157614cce6101f48261579d565b90505b60058210611ecd57610bef6101f482615775565b6001600160a01b0381166000908152600e60205260408120815b8154811015614d7257818181548110614d1a57614d1a615527565b906000526020600020906007020160030154828281548110614d3e57614d3e615527565b9060005260206000209060070201600001541115614d60575060019392505050565b80614d6a81615550565b915050614cff565b5060009392505050565b6001600160a01b03811660009081526014602052604090205460ff1615612252576001600160a01b038116600090815260156020526040812054601354909190614dc8906001906154db565b9050808214614e5057600060138281548110614de657614de6615527565b600091825260209091200154601380546001600160a01b039092169250829185908110614e1557614e15615527565b600091825260208083209190910180546001600160a01b0319166001600160a01b039485161790559290911681526015909152604090208290555b6013805480614e6157614e616157c4565b60008281526020808220830160001990810180546001600160a01b03191690559092019092556001600160a01b038516808352601482526040808420805460ff191690556015909252818320839055905190917f559305cbaf71779bd79f220cc126201d9e6264385a0b6fd766c975a65ced6ae991a2505050565b600180546001600160a01b038381166001600160a01b0319831681179093556040519116919082907f8be0079c531659141344cd1fd0a4f28419497f9722a3daafe3b4186f6b6457e090600090a35050565b600080602060008451602086016000885af180614f51576040513d6000823e3d81fd5b50506000513d91508115614f69578060011415614f76565b6001600160a01b0384163b155b15614a4257604051635274afe760e01b81526001600160a01b0385166004820152602401610d79565b6040518060e00160405280600081526020016000815260200160008152602001600081526020016000815260200160006001811115614fe057614fe061517b565b8152602001600081525090565b6001600160a01b038116811461225257600080fd5b60006020828403121561501457600080fd5b813561501f81614fed565b9392505050565b6020808252825182820181905260009190848201906040850190845b8181101561505e57835183529284019291840191600101615042565b50909695505050505050565b60008060006060848603121561507f57600080fd5b505081359360208301359350604090920135919050565b8035600281106150a557600080fd5b919050565b600080604083850312156150bd57600080fd5b82356150c881614fed565b91506150d660208401615096565b90509250929050565b600080604083850312156150f257600080fd5b50508035926020909101359150565b60006020828403121561511357600080fd5b5035919050565b60008060006060848603121561512f57600080fd5b8335925061513f60208501615096565b9150604084013590509250925092565b6000806040838503121561516257600080fd5b823561516d81614fed565b946020939093013593505050565b634e487b7160e01b600052602160045260246000fd5b600281106151af57634e487b7160e01b600052602160045260246000fd5b9052565b6000610100820190508982528860208301528760408301528660608301528560808301526151e460a0830186615191565b8360c083015282151560e08301529998505050505050505050565b634e487b7160e01b600052604160045260246000fd5b60405160e0810167ffffffffffffffff81118282101715615238576152386151ff565b60405290565b604051601f8201601f1916810167ffffffffffffffff81118282101715615267576152676151ff565b604052919050565b600067ffffffffffffffff821115615289576152896151ff565b50601f01601f191660200190565b6000602082840312156152a957600080fd5b813567ffffffffffffffff8111156152c057600080fd5b8201601f810184136152d157600080fd5b80356152e46152df8261526f565b61523e565b8181528560208385010111156152f957600080fd5b81602084016020830137600091810160200191909152949350505050565b600060e08201905088825287602083015286604083015285606083015284608083015261534760a0830185615191565b8260c083015298975050505050505050565b602080825282518282018190526000919060409081850190868401855b828110156153d85781518051855286810151878601528581015186860152606080820151908601526080808201519086015260a0808201516153ba82880182615191565b505060c0908101519085015260e09093019290850190600101615376565b5091979650505050505050565b6000806000604084860312156153fa57600080fd5b83359250602084013567ffffffffffffffff8082111561541957600080fd5b818601915086601f83011261542d57600080fd5b81358181111561543c57600080fd5b87602082850101111561544e57600080fd5b6020830194508093505050509250925092565b6020808252825182820181905260009190848201906040850190845b8181101561505e5783516001600160a01b03168352928401929184019160010161547d565b600080604083850312156154b557600080fd5b823591506150d660208401615096565b634e487b7160e01b600052601160045260246000fd5b81810381811115610ede57610ede6154c5565b8082028115828204841417610ede57610ede6154c5565b60008261552257634e487b7160e01b600052601260045260246000fd5b500490565b634e487b7160e01b600052603260045260246000fd5b80820180821115610ede57610ede6154c5565b600060018201615562576155626154c5565b5060010190565b80516150a581614fed565b60006020828403121561558657600080fd5b815161501f81614fed565b600082601f8301126155a257600080fd5b81516155b06152df8261526f565b818152602085818487010111156155c657600080fd5b60005b838110156155e45785810182015183820183015281016155c9565b50600092820101919091529392505050565b805180151581146150a557600080fd5b60006020828403121561561857600080fd5b815167ffffffffffffffff8082111561563057600080fd5b9083019060e0828603121561564457600080fd5b61564c615215565b82518281111561565b57600080fd5b61566787828601615591565b82525061567660208401615569565b602082015261568760408401615569565b6040820152606083015160608201526080830151608082015260a0830151828111156156b257600080fd5b6156be87828601615591565b60a0830152506156d060c084016155f6565b60c082015295945050505050565b6000602082840312156156f057600080fd5b5051919050565b6000600160ff1b820161570c5761570c6154c5565b5060000390565b60006020828403121561572557600080fd5b815160ff8116811461501f57600080fd5b8183823760009101908152919050565b60208152816020820152818360408301376000818301604090810191909152601f909201601f19160101919050565b8082018281126000831280158216821582161715615795576157956154c5565b505092915050565b81810360008312801583831316838312821617156157bd576157bd6154c5565b5092915050565b634e487b7160e01b600052603160045260246000fdfe163ca2ec19b2c2ad67691607193f23e99b7909b01e5e5a8263acc82f942d9878a26469706673582212208a98ebace1d347d7855354a8af9877a163134cf3b1fc3855546c0f647fc282a764736f6c63430008140033",
  "linkReferences": {},
  "deployedLinkReferences": {}
}