{
  "_format": "hh-sol-artifact-1",
  "contractName": "Staking",
  "sourceName": "contracts/Staking.sol",
  "abi": [
    {
      "inputs": [
        {
          "internalType": "address",
          "name": "_metrikToken",
          "type": "address"
        }
      ],
      "stateMutability": "nonpayable",
      "type": "constructor"
    },
    {
      "inputs": [],
      "name": "AlreadyStaked",
      "type": "error"
    },
    {
      "inputs": [],
      "name": "InvalidAmount",
      "type": "error"
    },
    {
      "inputs": [],
      "name": "InvalidDuration",
      "type": "error"
    },
    {
      "inputs": [],
      "name": "NoStakeFound",
      "type": "error"
    },
    {
      "inputs": [
        {
          "internalType": "address",
          "name": "owner",
          "type": "address"
        }
      ],
      "name": "OwnableInvalidOwner",
      "type": "error"
    },
    {
      "inputs": [
        {
          "internalType": "address",
          "name": "account",
          "type": "address"
        }
      ],
      "name": "OwnableUnauthorizedAccount",
      "type": "error"
    },
    {
      "inputs": [],
      "name": "ReentrancyGuardReentrantCall",
      "type": "error"
    },
    {
      "inputs": [
        {
          "internalType": "address",
          "name": "token",
          "type": "address"
        }
      ],
      "name": "SafeERC20FailedOperation",
      "type": "error"
    },
    {
      "inputs": [],
      "name": "StakingPeriodNotEnded",
      "type": "error"
    },
    {
      "anonymous": false,
      "inputs": [
        {
          "indexed": false,
          "internalType": "string",
          "name": "message",
          "type": "string"
        },
        {
          "indexed": true,
          "internalType": "address",
          "name": "user",
          "type": "address"
        }
      ],
      "name": "DebugLog",
      "type": "event"
    },
    {
      "anonymous": false,
      "inputs": [
        {
          "indexed": true,
          "internalType": "address",
          "name": "previousOwner",
          "type": "address"
        },
        {
          "indexed": true,
          "internalType": "address",
          "name": "newOwner",
          "type": "address"
        }
      ],
      "name": "OwnershipTransferred",
      "type": "event"
    },
    {
      "anonymous": false,
      "inputs": [
        {
          "indexed": true,
          "internalType": "address",
          "name": "user",
          "type": "address"
        },
        {
          "indexed": false,
          "internalType": "uint256",
          "name": "points",
          "type": "uint256"
        }
      ],
      "name": "PointsUpdated",
      "type": "event"
    },
    {
      "anonymous": false,
      "inputs": [
        {
          "indexed": true,
          "internalType": "address",
          "name": "user",
          "type": "address"
        },
        {
          "indexed": false,
          "internalType": "uint256",
          "name": "stakeIndex",
          "type": "uint256"
        },
        {
          "indexed": false,
          "internalType": "uint256",
          "name": "amount",
          "type": "uint256"
        }
      ],
      "name": "RewardsClaimed",
      "type": "event"
    },
    {
      "anonymous": false,
      "inputs": [
        {
          "indexed": true,
          "internalType": "address",
          "name": "user",
          "type": "address"
        },
        {
          "indexed": false,
          "internalType": "uint256",
          "name": "amount",
          "type": "uint256"
        },
        {
          "indexed": false,
          "internalType": "uint256",
          "name": "duration",
          "type": "uint256"
        },
        {
          "indexed": false,
          "internalType": "uint256",
          "name": "stakeId",
          "type": "uint256"
        }
      ],
      "name": "Staked",
      "type": "event"
    },
    {
      "anonymous": false,
      "inputs": [
        {
          "indexed": true,
          "internalType": "address",
          "name": "user",
          "type": "address"
        },
        {
          "indexed": false,
          "internalType": "uint256",
          "name": "amount",
          "type": "uint256"
        }
      ],
      "name": "TokensSlashed",
      "type": "event"
    },
    {
      "anonymous": false,
      "inputs": [
        {
          "indexed": true,
          "internalType": "address",
          "name": "user",
          "type": "address"
        },
        {
          "indexed": false,
          "internalType": "uint256",
          "name": "amount",
          "type": "uint256"
        },
        {
          "indexed": false,
          "internalType": "uint256",
          "name": "stakeId",
          "type": "uint256"
        }
      ],
      "name": "Unstaked",
      "type": "event"
    },
    {
      "inputs": [],
      "name": "BASIS_POINTS",
      "outputs": [
        {
          "internalType": "uint256",
          "name": "",
          "type": "uint256"
        }
      ],
      "stateMutability": "view",
      "type": "function"
    },
    {
      "inputs": [],
      "name": "BRONZE_TIER_MIN",
      "outputs": [
        {
          "internalType": "uint256",
          "name": "",
          "type": "uint256"
        }
      ],
      "stateMutability": "view",
      "type": "function"
    },
    {
      "inputs": [],
      "name": "DIAMOND_TIER_MIN",
      "outputs": [
        {
          "internalType": "uint256",
          "name": "",
          "type": "uint256"
        }
      ],
      "stateMutability": "view",
      "type": "function"
    },
    {
      "inputs": [],
      "name": "DURATION_MULTIPLIER",
      "outputs": [
        {
          "internalType": "uint256",
          "name": "",
          "type": "uint256"
        }
      ],
      "stateMutability": "view",
      "type": "function"
    },
    {
      "inputs": [],
      "name": "GOLD_TIER_MIN",
      "outputs": [
        {
          "internalType": "uint256",
          "name": "",
          "type": "uint256"
        }
      ],
      "stateMutability": "view",
      "type": "function"
    },
    {
      "inputs": [],
      "name": "POINTS_PER_TOKEN",
      "outputs": [
        {
          "internalType": "uint256",
          "name": "",
          "type": "uint256"
        }
      ],
      "stateMutability": "view",
      "type": "function"
    },
    {
      "inputs": [],
      "name": "SILVER_TIER_MIN",
      "outputs": [
        {
          "internalType": "uint256",
          "name": "",
          "type": "uint256"
        }
      ],
      "stateMutability": "view",
      "type": "function"
    },
    {
      "inputs": [
        {
          "internalType": "uint256",
          "name": "stakeIndex",
          "type": "uint256"
        }
      ],
      "name": "claimRewards",
      "outputs": [],
      "stateMutability": "nonpayable",
      "type": "function"
    },
    {
      "inputs": [
        {
          "internalType": "uint256",
          "name": "duration",
          "type": "uint256"
        }
      ],
      "name": "getAPYForDuration",
      "outputs": [
        {
          "internalType": "uint256",
          "name": "apy",
          "type": "uint256"
        }
      ],
      "stateMutability": "pure",
      "type": "function"
    },
    {
      "inputs": [
        {
          "internalType": "address",
          "name": "user",
          "type": "address"
        }
      ],
      "name": "getActiveStakes",
      "outputs": [
        {
          "components": [
            {
              "internalType": "uint256",
              "name": "amount",
              "type": "uint256"
            },
            {
              "internalType": "uint256",
              "name": "points",
              "type": "uint256"
            },
            {
              "internalType": "uint256",
              "name": "startTime",
              "type": "uint256"
            },
            {
              "internalType": "uint256",
              "name": "lastUpdateTime",
              "type": "uint256"
            },
            {
              "internalType": "uint256",
              "name": "duration",
              "type": "uint256"
            },
            {
              "internalType": "uint256",
              "name": "stakeId",
              "type": "uint256"
            },
            {
              "internalType": "bool",
              "name": "isActive",
              "type": "bool"
            },
            {
              "internalType": "uint256",
              "name": "apy",
              "type": "uint256"
            },
            {
              "internalType": "uint256",
              "name": "multiplier",
              "type": "uint256"
            },
            {
              "internalType": "uint256",
              "name": "rewardDebt",
              "type": "uint256"
            },
            {
              "internalType": "uint256",
              "name": "lastClaimedTime",
              "type": "uint256"
            }
          ],
          "internalType": "struct Staking.StakeInfo[]",
          "name": "",
          "type": "tuple[]"
        }
      ],
      "stateMutability": "view",
      "type": "function"
    },
    {
      "inputs": [
        {
          "internalType": "address",
          "name": "user",
          "type": "address"
        }
      ],
      "name": "getAverageStakeDuration",
      "outputs": [
        {
          "internalType": "uint256",
          "name": "",
          "type": "uint256"
        }
      ],
      "stateMutability": "view",
      "type": "function"
    },
    {
      "inputs": [
        {
          "internalType": "address",
          "name": "user",
          "type": "address"
        },
        {
          "internalType": "uint256",
          "name": "stakeIndex",
          "type": "uint256"
        }
      ],
      "name": "getStakeAPY",
      "outputs": [
        {
          "internalType": "uint256",
          "name": "apy",
          "type": "uint256"
        }
      ],
      "stateMutability": "view",
      "type": "function"
    },
    {
      "inputs": [],
      "name": "getStakeBonusTable",
      "outputs": [
        {
          "internalType": "uint256[]",
          "name": "amounts",
          "type": "uint256[]"
        },
        {
          "internalType": "uint256[]",
          "name": "durations",
          "type": "uint256[]"
        },
        {
          "internalType": "uint256[]",
          "name": "bonuses",
          "type": "uint256[]"
        }
      ],
      "stateMutability": "pure",
      "type": "function"
    },
    {
      "inputs": [
        {
          "internalType": "address",
          "name": "user",
          "type": "address"
        }
      ],
      "name": "getStakeDuration",
      "outputs": [
        {
          "internalType": "uint256",
          "name": "",
          "type": "uint256"
        }
      ],
      "stateMutability": "view",
      "type": "function"
    },
    {
      "inputs": [
        {
          "internalType": "address",
          "name": "user",
          "type": "address"
        }
      ],
      "name": "getStakeHistoryLength",
      "outputs": [
        {
          "internalType": "uint256",
          "name": "",
          "type": "uint256"
        }
      ],
      "stateMutability": "view",
      "type": "function"
    },
    {
      "inputs": [
        {
          "internalType": "address",
          "name": "user",
          "type": "address"
        },
        {
          "internalType": "uint256",
          "name": "stakeIndex",
          "type": "uint256"
        }
      ],
      "name": "getStakeInfo",
      "outputs": [
        {
          "internalType": "uint256",
          "name": "amount",
          "type": "uint256"
        },
        {
          "internalType": "uint256",
          "name": "points",
          "type": "uint256"
        },
        {
          "internalType": "uint256",
          "name": "startTime",
          "type": "uint256"
        },
        {
          "internalType": "uint256",
          "name": "lastUpdateTime",
          "type": "uint256"
        },
        {
          "internalType": "uint256",
          "name": "duration",
          "type": "uint256"
        },
        {
          "internalType": "bool",
          "name": "isActive",
          "type": "bool"
        }
      ],
      "stateMutability": "view",
      "type": "function"
    },
    {
      "inputs": [
        {
          "internalType": "address",
          "name": "user",
          "type": "address"
        },
        {
          "internalType": "uint256",
          "name": "stakeIndex",
          "type": "uint256"
        }
      ],
      "name": "getStakeMultiplier",
      "outputs": [
        {
          "internalType": "uint256",
          "name": "",
          "type": "uint256"
        }
      ],
      "stateMutability": "view",
      "type": "function"
    },
    {
      "inputs": [
        {
          "internalType": "address",
          "name": "user",
          "type": "address"
        }
      ],
      "name": "getStakeUsage",
      "outputs": [
        {
          "internalType": "uint256",
          "name": "total",
          "type": "uint256"
        },
        {
          "internalType": "uint256",
          "name": "used",
          "type": "uint256"
        },
        {
          "internalType": "uint256",
          "name": "free",
          "type": "uint256"
        }
      ],
      "stateMutability": "view",
      "type": "function"
    },
    {
      "inputs": [
        {
          "internalType": "address",
          "name": "user",
          "type": "address"
        }
      ],
      "name": "getStakedAmount",
      "outputs": [
        {
          "internalType": "uint256",
          "name": "",
          "type": "uint256"
        }
      ],
      "stateMutability": "view",
      "type": "function"
    },
    {
      "inputs": [
        {
          "internalType": "address",
          "name": "user",
          "type": "address"
        }
      ],
      "name": "getTier",
      "outputs": [
        {
          "internalType": "uint8",
          "name": "",
          "type": "uint8"
        }
      ],
      "stateMutability": "view",
      "type": "function"
    },
    {
      "inputs": [
        {
          "internalType": "address",
          "name": "user",
          "type": "address"
        }
      ],
      "name": "getTotalPoints",
      "outputs": [
        {
          "internalType": "uint256",
          "name": "",
          "type": "uint256"
        }
      ],
      "stateMutability": "view",
      "type": "function"
    },
    {
      "inputs": [],
      "name": "metrikToken",
      "outputs": [
        {
          "internalType": "contract IERC20",
          "name": "",
          "type": "address"
        }
      ],
      "stateMutability": "view",
      "type": "function"
    },
    {
      "inputs": [],
      "name": "owner",
      "outputs": [
        {
          "internalType": "address",
          "name": "",
          "type": "address"
        }
      ],
      "stateMutability": "view",
      "type": "function"
    },
    {
      "inputs": [
        {
          "internalType": "address",
          "name": "user",
          "type": "address"
        },
        {
          "internalType": "uint256",
          "name": "stakeIndex",
          "type": "uint256"
        }
      ],
      "name": "pendingRewards",
      "outputs": [
        {
          "internalType": "uint256",
          "name": "",
          "type": "uint256"
        }
      ],
      "stateMutability": "view",
      "type": "function"
    },
    {
      "inputs": [],
      "name": "renounceOwnership",
      "outputs": [],
      "stateMutability": "nonpayable",
      "type": "function"
    },
    {
      "inputs": [
        {
          "internalType": "address",
          "name": "user",
          "type": "address"
        }
      ],
      "name": "slashStakedTokens",
      "outputs": [],
      "stateMutability": "nonpayable",
      "type": "function"
    },
    {
      "inputs": [
        {
          "internalType": "uint256",
          "name": "amount",
          "type": "uint256"
        },
        {
          "internalType": "uint256",
          "name": "duration",
          "type": "uint256"
        }
      ],
      "name": "stake",
      "outputs": [],
      "stateMutability": "nonpayable",
      "type": "function"
    },
    {
      "inputs": [
        {
          "internalType": "address",
          "name": "",
          "type": "address"
        },
        {
          "internalType": "uint256",
          "name": "",
          "type": "uint256"
        }
      ],
      "name": "stakeHistory",
      "outputs": [
        {
          "internalType": "uint256",
          "name": "amount",
          "type": "uint256"
        },
        {
          "internalType": "uint256",
          "name": "startTime",
          "type": "uint256"
        },
        {
          "internalType": "uint256",
          "name": "duration",
          "type": "uint256"
        },
        {
          "internalType": "uint256",
          "name": "usedForBorrow",
          "type": "uint256"
        },
        {
          "internalType": "uint256",
          "name": "stakeId",
          "type": "uint256"
        }
      ],
      "stateMutability": "view",
      "type": "function"
    },
    {
      "inputs": [
        {
          "internalType": "address",
          "name": "",
          "type": "address"
        },
        {
          "internalType": "uint256",
          "name": "",
          "type": "uint256"
        }
      ],
      "name": "stakes",
      "outputs": [
        {
          "internalType": "uint256",
          "name": "amount",
          "type": "uint256"
        },
        {
          "internalType": "uint256",
          "name": "points",
          "type": "uint256"
        },
        {
          "internalType": "uint256",
          "name": "startTime",
          "type": "uint256"
        },
        {
          "internalType": "uint256",
          "name": "lastUpdateTime",
          "type": "uint256"
        },
        {
          "internalType": "uint256",
          "name": "duration",
          "type": "uint256"
        },
        {
          "internalType": "uint256",
          "name": "stakeId",
          "type": "uint256"
        },
        {
          "internalType": "bool",
          "name": "isActive",
          "type": "bool"
        },
        {
          "internalType": "uint256",
          "name": "apy",
          "type": "uint256"
        },
        {
          "internalType": "uint256",
          "name": "multiplier",
          "type": "uint256"
        },
        {
          "internalType": "uint256",
          "name": "rewardDebt",
          "type": "uint256"
        },
        {
          "internalType": "uint256",
          "name": "lastClaimedTime",
          "type": "uint256"
        }
      ],
      "stateMutability": "view",
      "type": "function"
    },
    {
      "inputs": [],
      "name": "totalPoints",
      "outputs": [
        {
          "internalType": "uint256",
          "name": "",
          "type": "uint256"
        }
      ],
      "stateMutability": "view",
      "type": "function"
    },
    {
      "inputs": [],
      "name": "totalStaked",
      "outputs": [
        {
          "internalType": "uint256",
          "name": "",
          "type": "uint256"
        }
      ],
      "stateMutability": "view",
      "type": "function"
    },
    {
      "inputs": [
        {
          "internalType": "address",
          "name": "newOwner",
          "type": "address"
        }
      ],
      "name": "transferOwnership",
      "outputs": [],
      "stateMutability": "nonpayable",
      "type": "function"
    },
    {
      "inputs": [
        {
          "internalType": "uint256",
          "name": "stakeIndex",
          "type": "uint256"
        }
      ],
      "name": "unstake",
      "outputs": [],
      "stateMutability": "nonpayable",
      "type": "function"
    },
    {
      "inputs": [
        {
          "internalType": "address",
          "name": "user",
          "type": "address"
        },
        {
          "internalType": "uint256",
          "name": "amount",
          "type": "uint256"
        },
        {
          "internalType": "bool",
          "name": "increase",
          "type": "bool"
        }
      ],
      "name": "updateStakeUsage",
      "outputs": [],
      "stateMutability": "nonpayable",
      "type": "function"
    },
    {
      "inputs": [
        {
          "internalType": "address",
          "name": "",
          "type": "address"
        }
      ],
      "name": "userPoints",
      "outputs": [
        {
          "internalType": "uint256",
          "name": "",
          "type": "uint256"
        }
      ],
      "stateMutability": "view",
      "type": "function"
    },
    {
      "inputs": [
        {
          "internalType": "address",
          "name": "",
          "type": "address"
        }
      ],
      "name": "userTotalStaked",
      "outputs": [
        {
          "internalType": "uint256",
          "name": "",
          "type": "uint256"
        }
      ],
      "stateMutability": "view",
      "type": "function"
    },
    {
      "inputs": [
        {
          "internalType": "address",
          "name": "",
          "type": "address"
        }
      ],
      "name": "userTotalUsedForBorrow",
      "outputs": [
        {
          "internalType": "uint256",
          "name": "",
          "type": "uint256"
        }
      ],
      "stateMutability": "view",
      "type": "function"
    }
  ],
  "bytecode": "0x60a06040523480156200001157600080fd5b50604051620028eb380380620028eb8339810160408190526200003491620000d0565b600160005533806200006057604051631e4fbdf760e01b81526000600482015260240160405180910390fd5b6200006b816200007e565b506001600160a01b031660805262000102565b600180546001600160a01b038381166001600160a01b0319831681179093556040519116919082907f8be0079c531659141344cd1fd0a4f28419497f9722a3daafe3b4186f6b6457e090600090a35050565b600060208284031215620000e357600080fd5b81516001600160a01b0381168114620000fb57600080fd5b9392505050565b6080516127aa620001416000396000818161041c0152818161078f01528181610d3f01528181610e8e015281816117320152611fde01526127aa6000f3fe608060405234801561001057600080fd5b50600436106102275760003560e01c8063719de1ef11610130578063b8542277116100b8578063ca5bbe431161007c578063ca5bbe4314610590578063dda397f6146105a3578063e1f1c4a7146105cc578063f2fde38b146105d5578063f50ddbc7146105e857600080fd5b8063b85422771461053e578063c26667a41461054f578063c46897fb14610562578063c52f7ab714610575578063c6aadb791461057d57600080fd5b8063a8f389c0116100ff578063a8f389c0146104ab578063ac5d9723146104bb578063b0f39695146104cb578063b45aae52146104de578063b66d82521461050357600080fd5b8063719de1ef1461045e5780637b0472f01461047e578063817b1cd2146104915780638da5cb5b1461049a57600080fd5b80633b521efe116101b3578063567142be11610182578063567142be14610393578063584b62a11461039c5780636099ecb2146104045780636f4670ae14610417578063715018a61461045657600080fd5b80633b521efe146103075780634ab5e2ee146103495780634da6a556146103605780635196b6ac1461037357600080fd5b80631747e0b0116101fa5780631747e0b01461029d5780632e17de78146102bd5780632f4b12bd146102d0578063319af2da146102e357806339cc8fe5146102f657600080fd5b80630962ef791461022c5780630a4ad7d2146102415780630f513164146102745780631088ce901461028a575b600080fd5b61023f61023a366004612457565b610608565b005b61025461024f36600461248c565b61083d565b604080519384526020840192909252908201526060015b60405180910390f35b61027c600181565b60405190815260200161026b565b61027c61029836600461248c565b610875565b6102b06102ab36600461248c565b610943565b60405161026b91906124ae565b61023f6102cb366004612457565b610bec565b61027c6102de36600461248c565b610f3b565b61023f6102f136600461255e565b610f4c565b61027c69010f0cf064dd5920000081565b61031a6103153660046125a3565b61111c565b6040805196875260208701959095529385019290925260608401526080830152151560a082015260c00161026b565b6103516111cc565b60405161026b93929190612608565b61027c61036e36600461248c565b6113f5565b61027c61038136600461248c565b60086020526000908152604090205481565b61027c60035481565b6103af6103aa3660046125a3565b6114bc565b604080519b8c5260208c019a909a52988a01979097526060890195909552608088019390935260a0870191909152151560c086015260e08501526101008401526101208301526101408201526101600161026b565b61027c6104123660046125a3565b611536565b61043e7f000000000000000000000000000000000000000000000000000000000000000081565b6040516001600160a01b03909116815260200161026b565b61023f611671565b61027c61046c36600461248c565b60076020526000908152604090205481565b61023f61048c36600461264b565b611685565b61027c60025481565b6001546001600160a01b031661043e565b61027c68878678326eac90000081565b61027c683635c9adc5dea0000081565b61027c6104d93660046125a3565b611acc565b6104f16104ec36600461248c565b611b47565b60405160ff909116815260200161026b565b6105166105113660046125a3565b611ba6565b604080519586526020860194909452928401919091526060830152608082015260a00161026b565b61027c69021e19e0c9bab240000081565b61027c61055d3660046125a3565b611bf4565b61027c610570366004612457565b611c6f565b61027c600281565b61027c61058b36600461248c565b611cc5565b61023f61059e36600461248c565b611dcd565b61027c6105b136600461248c565b6001600160a01b031660009081526006602052604090205490565b61027c61271081565b61023f6105e336600461248c565b612125565b61027c6105f636600461248c565b60056020526000908152604090205481565b610610612160565b3360009081526004602052604090205481106106475760405162461bcd60e51b815260040161063e9061266d565b60405180910390fd5b3360009081526004602052604081208054839081106106685761066861269a565b60009182526020909120600b90910201600681015490915060ff16801561068f5750805415155b6106cd5760405162461bcd60e51b815260206004820152600f60248201526e4e6f20616374697665207374616b6560881b604482015260640161063e565b60006106d93384611536565b9050600081116107215760405162461bcd60e51b81526020600482015260136024820152724e6f207265776172647320746f20636c61696d60681b604482015260640161063e565b8082600901600082825461073591906126c6565b90915550506004820154600283015461074e91906126c6565b421161075a574261076e565b8160040154826002015461076e91906126c6565b600a8301556040516340c10f1960e01b8152336004820152602481018290527f00000000000000000000000000000000000000000000000000000000000000006001600160a01b0316906340c10f1990604401600060405180830381600087803b1580156107db57600080fd5b505af11580156107ef573d6000803e3d6000fd5b505060408051868152602081018590523393507fdacbdde355ba930696a362ea6738feb9f8bd52dfb3d81947558fd3217e23e32592500160405180910390a2505061083a6001600055565b50565b6001600160a01b0381166000908152600760209081526040808320546008909252822054909161086d82846126d9565b929491935050565b600080805b6001600160a01b03841660009081526004602052604090205481101561093c576001600160a01b03841660009081526004602052604090208054829081106108c4576108c461269a565b600091825260209091206006600b90920201015460ff161561092a576001600160a01b038416600090815260046020526040902080548290811061090a5761090a61269a565b90600052602060002090600b0201600101548261092791906126c6565b91505b80610934816126ec565b91505061087a565b5092915050565b60606000805b6001600160a01b0384166000908152600460205260409020548110156109cf576001600160a01b03841660009081526004602052604090208054829081106109935761099361269a565b600091825260209091206006600b90920201015460ff16156109bd57816109b9816126ec565b9250505b806109c7816126ec565b915050610949565b5060008167ffffffffffffffff8111156109eb576109eb612705565b604051908082528060200260200182016040528015610a7b57816020015b610a68604051806101600160405280600081526020016000815260200160008152602001600081526020016000815260200160008152602001600015158152602001600081526020016000815260200160008152602001600081525090565b815260200190600190039081610a095790505b5090506000805b6001600160a01b038616600090815260046020526040902054811015610be2576001600160a01b0386166000908152600460205260409020805482908110610acc57610acc61269a565b600091825260209091206006600b90920201015460ff1615610bd0576001600160a01b0386166000908152600460205260409020805482908110610b1257610b1261269a565b60009182526020918290206040805161016081018252600b909302909101805483526001810154938301939093526002830154908201526003820154606082015260048201546080820152600582015460a0820152600682015460ff16151560c0820152600782015460e082015260088201546101008201526009820154610120820152600a909101546101408201528351849084908110610bb657610bb661269a565b60200260200101819052508180610bcc906126ec565b9250505b80610bda816126ec565b915050610a82565b5090949350505050565b610bf4612160565b336000908152600460205260409020548110610c225760405162461bcd60e51b815260040161063e9061266d565b336000908152600460205260408120805483908110610c4357610c4361269a565b90600052602060002090600b02019050806000015460001480610c6b5750600681015460ff16155b15610c8957604051632cdf478160e11b815260040160405180910390fd5b80600401548160020154610c9d91906126c6565b421015610cbd5760405163e733132560e01b815260040160405180910390fd5b6000610cc93384611536565b90508015610ddf5780826009016000828254610ce591906126c6565b909155505060048201546002830154610cfe91906126c6565b4211610d0a5742610d1e565b81600401548260020154610d1e91906126c6565b600a8301556040516340c10f1960e01b8152336004820152602481018290527f00000000000000000000000000000000000000000000000000000000000000006001600160a01b0316906340c10f1990604401600060405180830381600087803b158015610d8b57600080fd5b505af1158015610d9f573d6000803e3d6000fd5b505060408051868152602081018590523393507fdacbdde355ba930696a362ea6738feb9f8bd52dfb3d81947558fd3217e23e32592500160405180910390a25b610de9338461218a565b8154600183015460028054839190600090610e059084906126d9565b925050819055508060036000828254610e1e91906126d9565b90915550503360009081526005602052604081208054839290610e429084906126d9565b90915550503360009081526007602052604081208054849290610e669084906126d9565b909155505060068401805460ff1916905560008085556001850155610eb56001600160a01b037f00000000000000000000000000000000000000000000000000000000000000001633846122c4565b600584015460405133917f7fc4727e062e336010f2c282598ef5f14facb3de68cf8195c2f23e1454b2b74e91610ef391868252602082015260400190565b60405180910390a233600081815260056020908152604091829020549151918252600080516020612755833981519152910160405180910390a25050505061083a6001600055565b6000610f4682611cc5565b92915050565b610f54612328565b6001600160a01b03831660009081526006602052604081209083905b825481108015610f805750600082115b1561111457600084610fb557838281548110610f9e57610f9e61269a565b906000526020600020906005020160030154611007565b838281548110610fc757610fc761269a565b906000526020600020906005020160030154848381548110610feb57610feb61269a565b90600052602060002090600502016000015461100791906126d9565b90506000838210611018578361101a565b815b9050851561108d57808584815481106110355761103561269a565b9060005260206000209060050201600301600082825461105591906126c6565b90915550506001600160a01b038816600090815260086020526040812080548392906110829084906126c6565b909155506110f39050565b808584815481106110a0576110a061269a565b906000526020600020906005020160030160008282546110c091906126d9565b90915550506001600160a01b038816600090815260086020526040812080548392906110ed9084906126d9565b90915550505b6110fd81856126d9565b93505050808061110c906126ec565b915050610f70565b505050505050565b6001600160a01b03821660009081526004602052604081205481908190819081908190871061115d5760405162461bcd60e51b815260040161063e9061266d565b6001600160a01b03881660009081526004602052604081208054899081106111875761118761269a565b60009182526020909120600b9091020180546001820154600283015460038401546004850154600690950154939e929d50909b50995091975060ff1695509350505050565b60408051600480825260a082019092526060918291829160208201608080368337505060408051600480825260a08201909252929550905060208201608080368337505060408051600480825260a08201909252929450905060208201608080368337019050509050683635c9adc5dea00000836000815181106112525761125261269a565b602002602001018181525050623b5380826000815181106112755761127561269a565b6020026020010181815250506101f4816000815181106112975761129761269a565b60200260200101818152505068878678326eac900000836001815181106112c0576112c061269a565b6020026020010181815250506276a700826001815181106112e3576112e361269a565b6020026020010181815250506103e8816001815181106113055761130561269a565b60200260200101818152505069010f0cf064dd592000008360028151811061132f5761132f61269a565b60200260200101818152505062ed4e00826002815181106113525761135261269a565b6020026020010181815250506105dc816002815181106113745761137461269a565b60200260200101818152505069021e19e0c9bab24000008360038151811061139e5761139e61269a565b6020026020010181815250506301e13380826003815181106113c2576113c261269a565b6020026020010181815250506107d0816003815181106113e4576113e461269a565b602002602001018181525050909192565b600080805b6001600160a01b03841660009081526004602052604090205481101561093c576001600160a01b03841660009081526004602052604090208054829081106114445761144461269a565b600091825260209091206006600b90920201015460ff16156114aa576001600160a01b038416600090815260046020526040902080548290811061148a5761148a61269a565b90600052602060002090600b020160000154826114a791906126c6565b91505b806114b4816126ec565b9150506113fa565b600460205281600052604060002081815481106114d857600080fd5b60009182526020909120600b9091020180546001820154600283015460038401546004850154600586015460068701546007880154600889015460098a0154600a909a0154989b50969950949793969295919460ff9091169390928b565b6001600160a01b038216600090815260046020526040812054821061156d5760405162461bcd60e51b815260040161063e9061266d565b6001600160a01b03831660009081526004602052604081208054849081106115975761159761269a565b60009182526020909120600b90910201600681015490915060ff1615806115bd57508054155b156115cc576000915050610f46565b6000816004015482600201546115e291906126c6565b42116115ee5742611602565b8160040154826002015461160291906126c6565b90508082600a01541061161a57600092505050610f46565b600082600a01548261162c91906126d9565b905060006116406127106301e1338061271b565b6007850154855484916116529161271b565b61165c919061271b565b6116669190612732565b979650505050505050565b611679612328565b6116836000612355565b565b61168d612160565b816000036116ae5760405163162908e360e11b815260040160405180910390fd5b623b53808110156116d257604051637616640160e01b815260040160405180910390fd5b80623b5380141580156116e85750806276a70014155b80156116f757508062ed4e0014155b80156117075750806301e1338014155b1561172557604051637616640160e01b815260040160405180910390fd5b61175a6001600160a01b037f0000000000000000000000000000000000000000000000000000000000000000163330856123a7565b60008082623b5380036117735750600a905060646117b5565b826276a7000361178a5750600d905061012c6117b5565b8262ed4e00036117a15750600f90506101f46117b5565b826301e13380036117b55750601490506103205b6000600a6117c3848761271b565b6117cd9190612732565b9050600060046000336001600160a01b03166001600160a01b0316815260200190815260200160002080549050905060046000336001600160a01b03166001600160a01b03168152602001908152602001600020604051806101600160405280888152602001848152602001428152602001428152602001878152602001838152602001600115158152602001858152602001868152602001600081526020014281525090806001815401808255809150506001900390600052602060002090600b0201600090919091909150600082015181600001556020820151816001015560408201518160020155606082015181600301556080820151816004015560a0820151816005015560c08201518160060160006101000a81548160ff02191690831515021790555060e082015181600701556101008201518160080155610120820151816009015561014082015181600a0155505060066000336001600160a01b03166001600160a01b031681526020019081526020016000206040518060a00160405280888152602001428152602001878152602001600081526020018381525090806001815401808255809150506001900390600052602060002090600502016000909190919091506000820151816000015560208201518160010155604082015181600201556060820151816003015560808201518160040155505085600260008282546119df91906126c6565b9250508190555081600360008282546119f891906126c6565b90915550503360009081526005602052604081208054849290611a1c9084906126c6565b90915550503360009081526007602052604081208054889290611a409084906126c6565b9091555050604080518781526020810187905290810182905233907fb4caaf29adda3eefee3ad552a8e85058589bf834c7466cae4ee58787f70589ed9060600160405180910390a233600081815260056020908152604091829020549151918252600080516020612755833981519152910160405180910390a250505050611ac86001600055565b5050565b6001600160a01b0382166000908152600460205260408120548210611b035760405162461bcd60e51b815260040161063e9061266d565b6001600160a01b0383166000908152600460205260409020805483908110611b2d57611b2d61269a565b90600052602060002090600b020160080154905092915050565b600080611b5383610875565b90506127108110611b675750600492915050565b6113888110611b795750600392915050565b6109c48110611b8b5750600292915050565b6103e88110611b9d5750600192915050565b50600092915050565b60066020528160005260406000208181548110611bc257600080fd5b600091825260209091206005909102018054600182015460028301546003840154600490940154929550909350919085565b6001600160a01b0382166000908152600460205260408120548210611c2b5760405162461bcd60e51b815260040161063e9061266d565b6001600160a01b0383166000908152600460205260409020805483908110611c5557611c5561269a565b90600052602060002090600b020160070154905092915050565b600081623b538003611c8357506064919050565b816276a70003611c96575061012c919050565b8162ed4e0003611ca957506101f4919050565b816301e1338003611cbd5750610320919050565b506000919050565b60008080805b6001600160a01b038516600090815260046020526040902054811015611d9a576001600160a01b0385166000908152600460205260409020805482908110611d1557611d1561269a565b600091825260209091206006600b90920201015460ff1615611d88576001600160a01b0385166000908152600460205260409020805482908110611d5b57611d5b61269a565b90600052602060002090600b02016004015483611d7891906126c6565b925081611d84816126ec565b9250505b80611d92816126ec565b915050611ccb565b5080600003611dad575060009392505050565b62015180611dbb8284612732565b611dc59190612732565b949350505050565b611dd5612328565b6000805b6001600160a01b038316600090815260046020526040902054811015611f1c576001600160a01b0383166000908152600460205260408120805483908110611e2357611e2361269a565b60009182526020909120600b90910201600681015490915060ff168015611e4a5750805415155b15611f09578054600182015460028054839190600090611e6b9084906126d9565b925050819055508060036000828254611e8491906126d9565b90915550506001600160a01b03861660009081526005602052604081208054839290611eb19084906126d9565b90915550506001600160a01b03861660009081526007602052604081208054849290611ede9084906126d9565b90915550611eee905082866126c6565b60068401805460ff1916905560008085556001850155945050505b5080611f14816126ec565b915050611dd9565b5060008111611f665760405162461bcd60e51b8152602060048201526016602482015275139bc81858dd1a5d99481cdd185ad95cc8199bdd5b9960521b604482015260640161063e565b816001600160a01b03167f42c5c5392f1cc52a311cb73e5bdb7a6ecca0ce9b627fe4d65630e5f170d3a251604051611fc0906020808252600e908201526d4265666f7265206275726e696e6760901b604082015260600190565b60405180910390a2604051630852cd8d60e31b8152600481018290527f00000000000000000000000000000000000000000000000000000000000000006001600160a01b0316906342966c6890602401600060405180830381600087803b15801561202a57600080fd5b505af115801561203e573d6000803e3d6000fd5b50505050816001600160a01b03167f42c5c5392f1cc52a311cb73e5bdb7a6ecca0ce9b627fe4d65630e5f170d3a25160405161209b906020808252600d908201526c4166746572206275726e696e6760981b604082015260600190565b60405180910390a2816001600160a01b03167ff71d4eeef63c86ffc692e306c623b01b8373e091da8ee455aa0fe26305a4981c826040516120de91815260200190565b60405180910390a26001600160a01b038216600081815260056020908152604091829020549151918252600080516020612755833981519152910160405180910390a25050565b61212d612328565b6001600160a01b03811661215757604051631e4fbdf760e01b81526000600482015260240161063e565b61083a81612355565b60026000540361218357604051633ee5aeb560e01b815260040160405180910390fd5b6002600055565b6001600160a01b03821660009081526004602052604081208054839081106121b4576121b461269a565b90600052602060002090600b020190508060000154600014806121dc5750600681015460ff16155b156121e657505050565b60008160030154426121f891906126d9565b905060008260040154828460010154612211919061271b565b61221b9190612732565b90508083600101600082825461223191906126c6565b90915550504260038401556001600160a01b038516600090815260056020526040812080548392906122649084906126c6565b92505081905550806003600082825461227d91906126c6565b90915550506001600160a01b038516600081815260056020908152604091829020549151918252600080516020612755833981519152910160405180910390a25050505050565b6040516001600160a01b0383811660248301526044820183905261232391859182169063a9059cbb906064015b604051602081830303815290604052915060e01b6020820180516001600160e01b0383818316178352505050506123e6565b505050565b6001546001600160a01b031633146116835760405163118cdaa760e01b815233600482015260240161063e565b600180546001600160a01b038381166001600160a01b0319831681179093556040519116919082907f8be0079c531659141344cd1fd0a4f28419497f9722a3daafe3b4186f6b6457e090600090a35050565b6040516001600160a01b0384811660248301528381166044830152606482018390526123e09186918216906323b872dd906084016122f1565b50505050565b600080602060008451602086016000885af180612409576040513d6000823e3d81fd5b50506000513d9150811561242157806001141561242e565b6001600160a01b0384163b155b156123e057604051635274afe760e01b81526001600160a01b038516600482015260240161063e565b60006020828403121561246957600080fd5b5035919050565b80356001600160a01b038116811461248757600080fd5b919050565b60006020828403121561249e57600080fd5b6124a782612470565b9392505050565b602080825282518282018190526000919060409081850190868401855b828110156125515781518051855286810151878601528581015186860152606080820151908601526080808201519086015260a0808201519086015260c08082015115159086015260e0808201519086015261010080820151908601526101208082015190860152610140908101519085015261016090930192908501906001016124cb565b5091979650505050505050565b60008060006060848603121561257357600080fd5b61257c84612470565b9250602084013591506040840135801515811461259857600080fd5b809150509250925092565b600080604083850312156125b657600080fd5b6125bf83612470565b946020939093013593505050565b600081518084526020808501945080840160005b838110156125fd578151875295820195908201906001016125e1565b509495945050505050565b60608152600061261b60608301866125cd565b828103602084015261262d81866125cd565b9050828103604084015261264181856125cd565b9695505050505050565b6000806040838503121561265e57600080fd5b50508035926020909101359150565b602080825260139082015272092dcecc2d8d2c840e6e8c2d6ca40d2dcc8caf606b1b604082015260600190565b634e487b7160e01b600052603260045260246000fd5b634e487b7160e01b600052601160045260246000fd5b80820180821115610f4657610f466126b0565b81810381811115610f4657610f466126b0565b6000600182016126fe576126fe6126b0565b5060010190565b634e487b7160e01b600052604160045260246000fd5b8082028115828204841417610f4657610f466126b0565b60008261274f57634e487b7160e01b600052601260045260246000fd5b50049056fea05f39e6d8d4e060324edb900f0f5909de621fd93f19ccf65ba74e5965c98c36a26469706673582212208598c161d187493ef7952e00fea6814f43949b4d61b4222116d62d08d71ab3cb64736f6c63430008140033",
  "linkReferences": {},
  "deployedLinkReferences": {}
}